{
  "_format": "hh-sol-artifact-1",
  "contractName": "SPTMarket",
  "sourceName": "contracts/SPTMarket.sol",
  "abi": [
    {
      "inputs": [],
      "stateMutability": "nonpayable",
      "type": "constructor"
    },
    {
      "anonymous": false,
      "inputs": [
        {
          "indexed": false,
          "internalType": "uint256",
          "name": "id",
          "type": "uint256"
        },
        {
          "indexed": false,
          "internalType": "string",
          "name": "tokenURI",
          "type": "string"
        },
        {
          "indexed": false,
          "internalType": "address",
          "name": "publisher",
          "type": "address"
        },
        {
          "indexed": false,
          "internalType": "address[]",
          "name": "owners",
          "type": "address[]"
        },
        {
          "indexed": false,
          "internalType": "string",
          "name": "prompt",
          "type": "string"
        },
        {
          "indexed": false,
          "internalType": "string",
          "name": "params",
          "type": "string"
        },
        {
          "indexed": false,
          "internalType": "string",
          "name": "description",
          "type": "string"
        },
        {
          "indexed": false,
          "internalType": "string",
          "name": "model",
          "type": "string"
        },
        {
          "indexed": false,
          "internalType": "uint256",
          "name": "price",
          "type": "uint256"
        },
        {
          "indexed": false,
          "internalType": "bool",
          "name": "isCanceled",
          "type": "bool"
        }
      ],
      "name": "SPTUpdate",
      "type": "event"
    },
    {
      "inputs": [
        {
          "internalType": "uint256",
          "name": "id",
          "type": "uint256"
        }
      ],
      "name": "buySPT",
      "outputs": [],
      "stateMutability": "payable",
      "type": "function"
    },
    {
      "inputs": [],
      "name": "checkFunds",
      "outputs": [
        {
          "internalType": "uint256",
          "name": "",
          "type": "uint256"
        }
      ],
      "stateMutability": "view",
      "type": "function"
    },
    {
      "inputs": [
        {
          "internalType": "string",
          "name": "tokenURI",
          "type": "string"
        },
        {
          "internalType": "string",
          "name": "promptHash",
          "type": "string"
        },
        {
          "internalType": "string",
          "name": "params",
          "type": "string"
        },
        {
          "internalType": "string",
          "name": "description",
          "type": "string"
        },
        {
          "internalType": "string",
          "name": "model",
          "type": "string"
        },
        {
          "internalType": "uint256",
          "name": "price",
          "type": "uint256"
        }
      ],
      "name": "createSPT",
      "outputs": [],
      "stateMutability": "nonpayable",
      "type": "function"
    },
    {
      "inputs": [],
      "name": "getListingSPT",
      "outputs": [
        {
          "internalType": "uint256[]",
          "name": "",
          "type": "uint256[]"
        }
      ],
      "stateMutability": "view",
      "type": "function"
    },
    {
      "inputs": [],
      "name": "getNumItems",
      "outputs": [
        {
          "internalType": "uint256",
          "name": "numItem",
          "type": "uint256"
        }
      ],
      "stateMutability": "view",
      "type": "function"
    },
    {
      "inputs": [],
      "name": "getOnGoingSPTids",
      "outputs": [
        {
          "internalType": "uint256[]",
          "name": "",
          "type": "uint256[]"
        }
      ],
      "stateMutability": "view",
      "type": "function"
    },
    {
      "inputs": [],
      "name": "getOwnedSPTids",
      "outputs": [
        {
          "internalType": "uint256[]",
          "name": "",
          "type": "uint256[]"
        }
      ],
      "stateMutability": "view",
      "type": "function"
    },
    {
      "inputs": [],
      "name": "getPublishedSPTids",
      "outputs": [
        {
          "internalType": "uint256[]",
          "name": "",
          "type": "uint256[]"
        }
      ],
      "stateMutability": "view",
      "type": "function"
    },
    {
      "inputs": [],
      "name": "getPurchasedSPTids",
      "outputs": [
        {
          "internalType": "uint256[]",
          "name": "",
          "type": "uint256[]"
        }
      ],
      "stateMutability": "view",
      "type": "function"
    },
    {
      "inputs": [
        {
          "internalType": "uint256",
          "name": "_id",
          "type": "uint256"
        }
      ],
      "name": "getSPTInfo",
      "outputs": [
        {
          "internalType": "uint256",
          "name": "id",
          "type": "uint256"
        },
        {
          "internalType": "string",
          "name": "tokenURI",
          "type": "string"
        },
        {
          "internalType": "address",
          "name": "publisher",
          "type": "address"
        },
        {
          "internalType": "string",
          "name": "description",
          "type": "string"
        },
        {
          "internalType": "string",
          "name": "model",
          "type": "string"
        },
        {
          "internalType": "uint256",
          "name": "price",
          "type": "uint256"
        },
        {
          "internalType": "uint256",
          "name": "numSales",
          "type": "uint256"
        },
        {
          "internalType": "uint256",
          "name": "sumRate",
          "type": "uint256"
        },
        {
          "internalType": "bool",
          "name": "isCanceled",
          "type": "bool"
        }
      ],
      "stateMutability": "view",
      "type": "function"
    },
    {
      "inputs": [
        {
          "internalType": "uint256",
          "name": "id",
          "type": "uint256"
        }
      ],
      "name": "getTokenURI",
      "outputs": [
        {
          "internalType": "string",
          "name": "tokenURI",
          "type": "string"
        }
      ],
      "stateMutability": "view",
      "type": "function"
    },
    {
      "inputs": [
        {
          "internalType": "uint256",
          "name": "id",
          "type": "uint256"
        }
      ],
      "name": "getUserStatus",
      "outputs": [
        {
          "internalType": "enum SPTMarket.UserStatus",
          "name": "",
          "type": "uint8"
        }
      ],
      "stateMutability": "view",
      "type": "function"
    },
    {
      "inputs": [
        {
          "internalType": "uint256",
          "name": "id",
          "type": "uint256"
        },
        {
          "internalType": "uint256",
          "name": "rate",
          "type": "uint256"
        }
      ],
      "name": "reviewSPT",
      "outputs": [],
      "stateMutability": "nonpayable",
      "type": "function"
    },
    {
      "inputs": [
        {
          "internalType": "uint256",
          "name": "id",
          "type": "uint256"
        }
      ],
      "name": "showPromptHash",
      "outputs": [
        {
          "internalType": "string",
          "name": "prompt",
          "type": "string"
        }
      ],
      "stateMutability": "view",
      "type": "function"
    },
    {
      "inputs": [],
      "name": "withdrawFunds",
      "outputs": [],
      "stateMutability": "nonpayable",
      "type": "function"
    }
  ],
  "bytecode": "0x608060405234801561001057600080fd5b50336000806101000a81548173ffffffffffffffffffffffffffffffffffffffff021916908373ffffffffffffffffffffffffffffffffffffffff1602179055506126cc806100606000396000f3fe6080604052600436106100e85760003560e01c80636620216c1161008a578063c085632911610059578063c0856329146102f3578063c7c030d81461031c578063d7fe3b9214610347578063eaf7e32514610370576100e8565b80636620216c1461021b5780637d9eb0c5146102465780639515f2a514610283578063ab8ea018146102ae576100e8565b80633bb3a24d116100c65780633bb3a24d1461015a5780633f6bda93146101975780634c58c6c7146101d4578063555655c4146101ff576100e8565b80630779438c146100ed57806308d233dc1461011857806324600fc314610143575b600080fd5b3480156100f957600080fd5b5061010261039b565b60405161010f91906117ef565b60405180910390f35b34801561012457600080fd5b5061012d610561565b60405161013a9190611820565b60405180910390f35b34801561014f57600080fd5b506101586105fd565b005b34801561016657600080fd5b50610181600480360381019061017c919061187b565b61073d565b60405161018e9190611938565b60405180910390f35b3480156101a357600080fd5b506101be60048036038101906101b9919061187b565b6107fa565b6040516101cb91906119d1565b60405180910390f35b3480156101e057600080fd5b506101e9610861565b6040516101f691906117ef565b60405180910390f35b6102196004803603810190610214919061187b565b61099a565b005b34801561022757600080fd5b50610230610b6d565b60405161023d91906117ef565b60405180910390f35b34801561025257600080fd5b5061026d6004803603810190610268919061187b565b610ca5565b60405161027a9190611938565b60405180910390f35b34801561028f57600080fd5b50610298610d62565b6040516102a591906117ef565b60405180910390f35b3480156102ba57600080fd5b506102d560048036038101906102d0919061187b565b610e50565b6040516102ea99989796959493929190611a48565b60405180910390f35b3480156102ff57600080fd5b5061031a60048036038101906103159190611aea565b6110a0565b005b34801561032857600080fd5b5061033161134b565b60405161033e91906117ef565b60405180910390f35b34801561035357600080fd5b5061036e60048036038101906103699190611c5f565b611484565b005b34801561037c57600080fd5b506103856116ee565b6040516103929190611820565b60405180910390f35b6060600060018054905067ffffffffffffffff8111156103be576103bd611b34565b5b6040519080825280602002602001820160405280156103ec5781602001602082028036833780820191505090505b5090506000805b60018054905081101561055857600160038111156104145761041361195a565b5b600260003373ffffffffffffffffffffffffffffffffffffffff1673ffffffffffffffffffffffffffffffffffffffff168152602001908152602001600020600083815260200190815260200160002060009054906101000a900460ff1660038111156104845761048361195a565b5b148061051157506002600381111561049f5761049e61195a565b5b600260003373ffffffffffffffffffffffffffffffffffffffff1673ffffffffffffffffffffffffffffffffffffffff168152602001908152602001600020600083815260200190815260200160002060009054906101000a900460ff16600381111561050f5761050e61195a565b5b145b15610545578083838151811061052a57610529611d78565b5b602002602001018181525050818061054190611dd6565b9250505b808061055090611dd6565b9150506103f3565b50819250505090565b60003373ffffffffffffffffffffffffffffffffffffffff1660008054906101000a900473ffffffffffffffffffffffffffffffffffffffff1673ffffffffffffffffffffffffffffffffffffffff16146105f1576040517f08c379a00000000000000000000000000000000000000000000000000000000081526004016105e890611e90565b60405180910390fd5b60004790508091505090565b3373ffffffffffffffffffffffffffffffffffffffff1660008054906101000a900473ffffffffffffffffffffffffffffffffffffffff1673ffffffffffffffffffffffffffffffffffffffff161461068b576040517f08c379a000000000000000000000000000000000000000000000000000000000815260040161068290611e90565b60405180910390fd5b6000479050600081116106d3576040517f08c379a00000000000000000000000000000000000000000000000000000000081526004016106ca90611efc565b60405180910390fd5b60008054906101000a900473ffffffffffffffffffffffffffffffffffffffff1673ffffffffffffffffffffffffffffffffffffffff166108fc829081150290604051600060405180830381858888f19350505050158015610739573d6000803e3d6000fd5b5050565b606060006001838154811061075557610754611d78565b5b90600052602060002090600b0201905080600101805461077490611f4b565b80601f01602080910402602001604051908101604052809291908181526020018280546107a090611f4b565b80156107ed5780601f106107c2576101008083540402835291602001916107ed565b820191906000526020600020905b8154815290600101906020018083116107d057829003601f168201915b5050505050915050919050565b6000600260003373ffffffffffffffffffffffffffffffffffffffff1673ffffffffffffffffffffffffffffffffffffffff168152602001908152602001600020600083815260200190815260200160002060009054906101000a900460ff169050919050565b6060600060018054905067ffffffffffffffff81111561088457610883611b34565b5b6040519080825280602002602001820160405280156108b25781602001602082028036833780820191505090505b5090506000805b60018054905081101561099157600260038111156108da576108d961195a565b5b600260003373ffffffffffffffffffffffffffffffffffffffff1673ffffffffffffffffffffffffffffffffffffffff168152602001908152602001600020600083815260200190815260200160002060009054906101000a900460ff16600381111561094a5761094961195a565b5b0361097e578083838151811061096357610962611d78565b5b602002602001018181525050818061097a90611dd6565b9250505b808061098990611dd6565b9150506108b9565b50819250505090565b6000600182815481106109b0576109af611d78565b5b90600052602060002090600b020190508060020160009054906101000a900473ffffffffffffffffffffffffffffffffffffffff1673ffffffffffffffffffffffffffffffffffffffff163373ffffffffffffffffffffffffffffffffffffffff1603610a52576040517f08c379a0000000000000000000000000000000000000000000000000000000008152600401610a4990611fee565b60405180910390fd5b6000151581600a0160009054906101000a900460ff16151514610aaa576040517f08c379a0000000000000000000000000000000000000000000000000000000008152600401610aa190612080565b60405180910390fd5b80600701543414610af0576040517f08c379a0000000000000000000000000000000000000000000000000000000008152600401610ae790612112565b60405180910390fd5b6001600260003373ffffffffffffffffffffffffffffffffffffffff1673ffffffffffffffffffffffffffffffffffffffff168152602001908152602001600020600084815260200190815260200160002060006101000a81548160ff02191690836003811115610b6457610b6361195a565b5b02179055505050565b6060600060018054905067ffffffffffffffff811115610b9057610b8f611b34565b5b604051908082528060200260200182016040528015610bbe5781602001602082028036833780820191505090505b5090506000805b600180549050811015610c9c57600380811115610be557610be461195a565b5b600260003373ffffffffffffffffffffffffffffffffffffffff1673ffffffffffffffffffffffffffffffffffffffff168152602001908152602001600020600083815260200190815260200160002060009054906101000a900460ff166003811115610c5557610c5461195a565b5b03610c895780838381518110610c6e57610c6d611d78565b5b6020026020010181815250508180610c8590611dd6565b9250505b8080610c9490611dd6565b915050610bc5565b50819250505090565b6060600060018381548110610cbd57610cbc611d78565b5b90600052602060002090600b02019050806003018054610cdc90611f4b565b80601f0160208091040260200160405190810160405280929190818152602001828054610d0890611f4b565b8015610d555780601f10610d2a57610100808354040283529160200191610d55565b820191906000526020600020905b815481529060010190602001808311610d3857829003601f168201915b5050505050915050919050565b6060600060018054905067ffffffffffffffff811115610d8557610d84611b34565b5b604051908082528060200260200182016040528015610db35781602001602082028036833780820191505090505b5090506000805b600180549050811015610e47576000151560018281548110610ddf57610dde611d78565b5b90600052602060002090600b0201600a0160009054906101000a900460ff16151503610e345780838381518110610e1957610e18611d78565b5b6020026020010181815250508180610e3090611dd6565b9250505b8080610e3f90611dd6565b915050610dba565b50819250505090565b600060606000606080600080600080600060018b81548110610e7557610e74611d78565b5b90600052602060002090600b020190508060000154816001018260020160009054906101000a900473ffffffffffffffffffffffffffffffffffffffff16836005018460060185600701548660080154876009015488600a0160009054906101000a900460ff16878054610ee890611f4b565b80601f0160208091040260200160405190810160405280929190818152602001828054610f1490611f4b565b8015610f615780601f10610f3657610100808354040283529160200191610f61565b820191906000526020600020905b815481529060010190602001808311610f4457829003601f168201915b50505050509750858054610f7490611f4b565b80601f0160208091040260200160405190810160405280929190818152602001828054610fa090611f4b565b8015610fed5780601f10610fc257610100808354040283529160200191610fed565b820191906000526020600020905b815481529060010190602001808311610fd057829003601f168201915b5050505050955084805461100090611f4b565b80601f016020809104026020016040519081016040528092919081815260200182805461102c90611f4b565b80156110795780601f1061104e57610100808354040283529160200191611079565b820191906000526020600020905b81548152906001019060200180831161105c57829003601f168201915b50505050509450995099509950995099509950995099509950509193959799909294969850565b6000600183815481106110b6576110b5611d78565b5b90600052602060002090600b02019050600160038111156110da576110d961195a565b5b600260003373ffffffffffffffffffffffffffffffffffffffff1673ffffffffffffffffffffffffffffffffffffffff168152602001908152602001600020600085815260200190815260200160002060009054906101000a900460ff16600381111561114a5761114961195a565b5b1461118a576040517f08c379a0000000000000000000000000000000000000000000000000000000008152600401611181906121a4565b60405180910390fd5b6005821115801561119c575060018210155b6111db576040517f08c379a00000000000000000000000000000000000000000000000000000000081526004016111d29061225c565b60405180910390fd5b600060058360056111ec919061227c565b6111f691906122b0565b90508160020160009054906101000a900473ffffffffffffffffffffffffffffffffffffffff1673ffffffffffffffffffffffffffffffffffffffff166108fc61126c606461125e85606461124b919061227c565b87600701546116fb90919063ffffffff16565b61171190919063ffffffff16565b9081150290604051600060405180830381858888f19350505050158015611297573d6000803e3d6000fd5b5060028060003373ffffffffffffffffffffffffffffffffffffffff1673ffffffffffffffffffffffffffffffffffffffff168152602001908152602001600020600086815260200190815260200160002060006101000a81548160ff0219169083600381111561130b5761130a61195a565b5b021790555081600801600081548092919061132590611dd6565b91905055508282600901600082825461133e91906122f2565b9250508190555050505050565b6060600060018054905067ffffffffffffffff81111561136e5761136d611b34565b5b60405190808252806020026020018201604052801561139c5781602001602082028036833780820191505090505b5090506000805b60018054905081101561147b57600160038111156113c4576113c361195a565b5b600260003373ffffffffffffffffffffffffffffffffffffffff1673ffffffffffffffffffffffffffffffffffffffff168152602001908152602001600020600083815260200190815260200160002060009054906101000a900460ff1660038111156114345761143361195a565b5b03611468578083838151811061144d5761144c611d78565b5b602002602001018181525050818061146490611dd6565b9250505b808061147390611dd6565b9150506113a3565b50819250505090565b60008110156114c8576040517f08c379a00000000000000000000000000000000000000000000000000000000081526004016114bf90612398565b60405180910390fd5b6000600180549050905060006040518061016001604052808381526020018981526020013373ffffffffffffffffffffffffffffffffffffffff168152602001888152602001878152602001868152602001858152602001848152602001600081526020016000815260200160001515815250905060018190806001815401808255809150506001900390600052602060002090600b02016000909190919091506000820151816000015560208201518160010190816115889190612564565b5060408201518160020160006101000a81548173ffffffffffffffffffffffffffffffffffffffff021916908373ffffffffffffffffffffffffffffffffffffffff16021790555060608201518160030190816115e59190612564565b5060808201518160040190816115fb9190612564565b5060a08201518160050190816116119190612564565b5060c08201518160060190816116279190612564565b5060e082015181600701556101008201518160080155610120820151816009015561014082015181600a0160006101000a81548160ff02191690831515021790555050506003600260003373ffffffffffffffffffffffffffffffffffffffff1673ffffffffffffffffffffffffffffffffffffffff168152602001908152602001600020600084815260200190815260200160002060006101000a81548160ff021916908360038111156116df576116de61195a565b5b02179055505050505050505050565b6000600180549050905090565b6000818361170991906122b0565b905092915050565b6000818361171f9190612665565b905092915050565b600081519050919050565b600082825260208201905092915050565b6000819050602082019050919050565b6000819050919050565b61176681611753565b82525050565b6000611778838361175d565b60208301905092915050565b6000602082019050919050565b600061179c82611727565b6117a68185611732565b93506117b183611743565b8060005b838110156117e25781516117c9888261176c565b97506117d483611784565b9250506001810190506117b5565b5085935050505092915050565b600060208201905081810360008301526118098184611791565b905092915050565b61181a81611753565b82525050565b60006020820190506118356000830184611811565b92915050565b6000604051905090565b600080fd5b600080fd5b61185881611753565b811461186357600080fd5b50565b6000813590506118758161184f565b92915050565b60006020828403121561189157611890611845565b5b600061189f84828501611866565b91505092915050565b600081519050919050565b600082825260208201905092915050565b60005b838110156118e25780820151818401526020810190506118c7565b60008484015250505050565b6000601f19601f8301169050919050565b600061190a826118a8565b61191481856118b3565b93506119248185602086016118c4565b61192d816118ee565b840191505092915050565b6000602082019050818103600083015261195281846118ff565b905092915050565b7f4e487b7100000000000000000000000000000000000000000000000000000000600052602160045260246000fd5b6004811061199a5761199961195a565b5b50565b60008190506119ab82611989565b919050565b60006119bb8261199d565b9050919050565b6119cb816119b0565b82525050565b60006020820190506119e660008301846119c2565b92915050565b600073ffffffffffffffffffffffffffffffffffffffff82169050919050565b6000611a17826119ec565b9050919050565b611a2781611a0c565b82525050565b60008115159050919050565b611a4281611a2d565b82525050565b600061012082019050611a5e600083018c611811565b8181036020830152611a70818b6118ff565b9050611a7f604083018a611a1e565b8181036060830152611a9181896118ff565b90508181036080830152611aa581886118ff565b9050611ab460a0830187611811565b611ac160c0830186611811565b611ace60e0830185611811565b611adc610100830184611a39565b9a9950505050505050505050565b60008060408385031215611b0157611b00611845565b5b6000611b0f85828601611866565b9250506020611b2085828601611866565b9150509250929050565b600080fd5b600080fd5b7f4e487b7100000000000000000000000000000000000000000000000000000000600052604160045260246000fd5b611b6c826118ee565b810181811067ffffffffffffffff82111715611b8b57611b8a611b34565b5b80604052505050565b6000611b9e61183b565b9050611baa8282611b63565b919050565b600067ffffffffffffffff821115611bca57611bc9611b34565b5b611bd3826118ee565b9050602081019050919050565b82818337600083830152505050565b6000611c02611bfd84611baf565b611b94565b905082815260208101848484011115611c1e57611c1d611b2f565b5b611c29848285611be0565b509392505050565b600082601f830112611c4657611c45611b2a565b5b8135611c56848260208601611bef565b91505092915050565b60008060008060008060c08789031215611c7c57611c7b611845565b5b600087013567ffffffffffffffff811115611c9a57611c9961184a565b5b611ca689828a01611c31565b965050602087013567ffffffffffffffff811115611cc757611cc661184a565b5b611cd389828a01611c31565b955050604087013567ffffffffffffffff811115611cf457611cf361184a565b5b611d0089828a01611c31565b945050606087013567ffffffffffffffff811115611d2157611d2061184a565b5b611d2d89828a01611c31565b935050608087013567ffffffffffffffff811115611d4e57611d4d61184a565b5b611d5a89828a01611c31565b92505060a0611d6b89828a01611866565b9150509295509295509295565b7f4e487b7100000000000000000000000000000000000000000000000000000000600052603260045260246000fd5b7f4e487b7100000000000000000000000000000000000000000000000000000000600052601160045260246000fd5b6000611de182611753565b91507fffffffffffffffffffffffffffffffffffffffffffffffffffffffffffffffff8203611e1357611e12611da7565b5b600182019050919050565b7f6f6e6c794465706c6f7965723a204f6e6c79206465706c6f7965722063616e2060008201527f61636365737320746f2074686973206d6574686f640000000000000000000000602082015250565b6000611e7a6035836118b3565b9150611e8582611e1e565b604082019050919050565b60006020820190508181036000830152611ea981611e6d565b9050919050565b7f4e46544d61726b65743a2062616c616e6365206973207a65726f000000000000600082015250565b6000611ee6601a836118b3565b9150611ef182611eb0565b602082019050919050565b60006020820190508181036000830152611f1581611ed9565b9050919050565b7f4e487b7100000000000000000000000000000000000000000000000000000000600052602260045260246000fd5b60006002820490506001821680611f6357607f821691505b602082108103611f7657611f75611f1c565b5b50919050565b7f546865207075626c69736865722063616e6e6f7420627579207468652069746560008201527f6d00000000000000000000000000000000000000000000000000000000000000602082015250565b6000611fd86021836118b3565b9150611fe382611f7c565b604082019050919050565b6000602082019050818103600083015261200781611fcb565b9050919050565b7f6275795350543a2054686973206974656d2063616e6e6f7420626520626f756760008201527f6874000000000000000000000000000000000000000000000000000000000000602082015250565b600061206a6022836118b3565b91506120758261200e565b604082019050919050565b600060208201905081810360008301526120998161205d565b9050919050565b7f6275795350543a20596f7520646f6e2774206d6174636820746865207072696360008201527f6500000000000000000000000000000000000000000000000000000000000000602082015250565b60006120fc6021836118b3565b9150612107826120a0565b604082019050919050565b6000602082019050818103600083015261212b816120ef565b9050919050565b7f7265766965775350543a2054686520757365722063616e6e6f7420726576696560008201527f7720666f722074686973204974656d2e00000000000000000000000000000000602082015250565b600061218e6030836118b3565b915061219982612132565b604082019050919050565b600060208201905081810360008301526121bd81612181565b9050919050565b7f7265766965775350543a20417267756d656e742076616c7565206572726f722c60008201527f207468652076616c7565206f662072617465206d7573742062652031203c3d2060208201527f72617465203c3d20350000000000000000000000000000000000000000000000604082015250565b60006122466049836118b3565b9150612251826121c4565b606082019050919050565b6000602082019050818103600083015261227581612239565b9050919050565b600061228782611753565b915061229283611753565b92508282039050818111156122aa576122a9611da7565b5b92915050565b60006122bb82611753565b91506122c683611753565b92508282026122d481611753565b915082820484148315176122eb576122ea611da7565b5b5092915050565b60006122fd82611753565b915061230883611753565b92508282019050808211156123205761231f611da7565b5b92915050565b7f6372656174655350543a207072696365206d757374206265206772656174657260008201527f207468616e206f7220657175616c7320746f2030000000000000000000000000602082015250565b60006123826034836118b3565b915061238d82612326565b604082019050919050565b600060208201905081810360008301526123b181612375565b9050919050565b60008190508160005260206000209050919050565b60006020601f8301049050919050565b600082821b905092915050565b60006008830261241a7fffffffffffffffffffffffffffffffffffffffffffffffffffffffffffffffff826123dd565b61242486836123dd565b95508019841693508086168417925050509392505050565b6000819050919050565b600061246161245c61245784611753565b61243c565b611753565b9050919050565b6000819050919050565b61247b83612446565b61248f61248782612468565b8484546123ea565b825550505050565b600090565b6124a4612497565b6124af818484612472565b505050565b5b818110156124d3576124c860008261249c565b6001810190506124b5565b5050565b601f821115612518576124e9816123b8565b6124f2846123cd565b81016020851015612501578190505b61251561250d856123cd565b8301826124b4565b50505b505050565b600082821c905092915050565b600061253b6000198460080261251d565b1980831691505092915050565b6000612554838361252a565b9150826002028217905092915050565b61256d826118a8565b67ffffffffffffffff81111561258657612585611b34565b5b6125908254611f4b565b61259b8282856124d7565b600060209050601f8311600181146125ce57600084156125bc578287015190505b6125c68582612548565b86555061262e565b601f1984166125dc866123b8565b60005b82811015612604578489015182556001820191506020850194506020810190506125df565b86831015612621578489015161261d601f89168261252a565b8355505b6001600288020188555050505b505050505050565b7f4e487b7100000000000000000000000000000000000000000000000000000000600052601260045260246000fd5b600061267082611753565b915061267b83611753565b92508261268b5761268a612636565b5b82820490509291505056fea2646970667358221220202f4e1b4e2951b434f3a312eac2c0f88ccb7060331c777680fccc825eb49ca764736f6c63430008130033",
  "linkReferences": {},
  "deployedLinkReferences": {}
}