{
  "_format": "hh-sol-artifact-1",
  "contractName": "SPTMarket",
  "sourceName": "contracts/SPTMarket.sol",
  "abi": [
    {
      "inputs": [],
      "stateMutability": "nonpayable",
      "type": "constructor"
    },
    {
      "anonymous": false,
      "inputs": [
        {
          "indexed": false,
          "internalType": "uint256",
          "name": "id",
          "type": "uint256"
        },
        {
          "indexed": false,
          "internalType": "string",
          "name": "tokenURI",
          "type": "string"
        },
        {
          "indexed": false,
          "internalType": "address",
          "name": "publisher",
          "type": "address"
        },
        {
          "indexed": false,
          "internalType": "address[]",
          "name": "owners",
          "type": "address[]"
        },
        {
          "indexed": false,
          "internalType": "string",
          "name": "prompt",
          "type": "string"
        },
        {
          "indexed": false,
          "internalType": "string",
          "name": "params",
          "type": "string"
        },
        {
          "indexed": false,
          "internalType": "string",
          "name": "description",
          "type": "string"
        },
        {
          "indexed": false,
          "internalType": "string",
          "name": "model",
          "type": "string"
        },
        {
          "indexed": false,
          "internalType": "uint256",
          "name": "price",
          "type": "uint256"
        },
        {
          "indexed": false,
          "internalType": "bool",
          "name": "isCanceled",
          "type": "bool"
        }
      ],
      "name": "SPTUpdate",
      "type": "event"
    },
    {
      "inputs": [
        {
          "internalType": "uint256",
          "name": "id",
          "type": "uint256"
        }
      ],
      "name": "buySPT",
      "outputs": [],
      "stateMutability": "payable",
      "type": "function"
    },
    {
      "inputs": [],
      "name": "checkFunds",
      "outputs": [
        {
          "internalType": "uint256",
          "name": "",
          "type": "uint256"
        }
      ],
      "stateMutability": "view",
      "type": "function"
    },
    {
      "inputs": [
        {
          "internalType": "string",
          "name": "tokenURI",
          "type": "string"
        },
        {
          "internalType": "string",
          "name": "promptHash",
          "type": "string"
        },
        {
          "internalType": "string",
          "name": "params",
          "type": "string"
        },
        {
          "internalType": "string",
          "name": "description",
          "type": "string"
        },
        {
          "internalType": "string",
          "name": "model",
          "type": "string"
        },
        {
          "internalType": "uint256",
          "name": "price",
          "type": "uint256"
        }
      ],
      "name": "createSPT",
      "outputs": [],
      "stateMutability": "nonpayable",
      "type": "function"
    },
    {
      "inputs": [],
      "name": "getListingSPT",
      "outputs": [
        {
          "internalType": "uint256[]",
          "name": "",
          "type": "uint256[]"
        }
      ],
      "stateMutability": "view",
      "type": "function"
    },
    {
      "inputs": [],
      "name": "getNumItems",
      "outputs": [
        {
          "internalType": "uint256",
          "name": "numItem",
          "type": "uint256"
        }
      ],
      "stateMutability": "view",
      "type": "function"
    },
    {
      "inputs": [],
      "name": "getOnGoingSPTids",
      "outputs": [
        {
          "internalType": "uint256[]",
          "name": "",
          "type": "uint256[]"
        }
      ],
      "stateMutability": "view",
      "type": "function"
    },
    {
      "inputs": [],
      "name": "getOwnedSPTids",
      "outputs": [
        {
          "internalType": "uint256[]",
          "name": "",
          "type": "uint256[]"
        }
      ],
      "stateMutability": "view",
      "type": "function"
    },
    {
      "inputs": [],
      "name": "getPublishedSPTids",
      "outputs": [
        {
          "internalType": "uint256[]",
          "name": "",
          "type": "uint256[]"
        }
      ],
      "stateMutability": "view",
      "type": "function"
    },
    {
      "inputs": [],
      "name": "getPurchasedSPTids",
      "outputs": [
        {
          "internalType": "uint256[]",
          "name": "",
          "type": "uint256[]"
        }
      ],
      "stateMutability": "view",
      "type": "function"
    },
    {
      "inputs": [
        {
          "internalType": "uint256",
          "name": "_id",
          "type": "uint256"
        }
      ],
      "name": "getSPTInfo",
      "outputs": [
        {
          "internalType": "uint256",
          "name": "id",
          "type": "uint256"
        },
        {
          "internalType": "string",
          "name": "tokenURI",
          "type": "string"
        },
        {
          "internalType": "address",
          "name": "publisher",
          "type": "address"
        },
        {
          "internalType": "string",
          "name": "description",
          "type": "string"
        },
        {
          "internalType": "string",
          "name": "model",
          "type": "string"
        },
        {
          "internalType": "uint256",
          "name": "price",
          "type": "uint256"
        },
        {
          "internalType": "uint256",
          "name": "numSales",
          "type": "uint256"
        },
        {
          "internalType": "uint256",
          "name": "sumRate",
          "type": "uint256"
        },
        {
          "internalType": "bool",
          "name": "isCanceled",
          "type": "bool"
        }
      ],
      "stateMutability": "view",
      "type": "function"
    },
    {
      "inputs": [
        {
          "internalType": "uint256",
          "name": "id",
          "type": "uint256"
        }
      ],
      "name": "getTokenURI",
      "outputs": [
        {
          "internalType": "string",
          "name": "tokenURI",
          "type": "string"
        }
      ],
      "stateMutability": "view",
      "type": "function"
    },
    {
      "inputs": [
        {
          "internalType": "uint256",
          "name": "id",
          "type": "uint256"
        }
      ],
      "name": "getUserStatus",
      "outputs": [
        {
          "internalType": "enum SPTMarket.UserStatus",
          "name": "",
          "type": "uint8"
        }
      ],
      "stateMutability": "view",
      "type": "function"
    },
    {
      "inputs": [
        {
          "internalType": "uint256",
          "name": "id",
          "type": "uint256"
        },
        {
          "internalType": "uint256",
          "name": "rate",
          "type": "uint256"
        }
      ],
      "name": "reviewSPT",
      "outputs": [],
      "stateMutability": "nonpayable",
      "type": "function"
    },
    {
      "inputs": [
        {
          "internalType": "uint256",
          "name": "id",
          "type": "uint256"
        }
      ],
      "name": "showPromptHash",
      "outputs": [
        {
          "internalType": "string",
          "name": "prompt",
          "type": "string"
        }
      ],
      "stateMutability": "view",
      "type": "function"
    },
    {
      "inputs": [],
      "name": "withdrawFunds",
      "outputs": [],
      "stateMutability": "nonpayable",
      "type": "function"
    }
  ],
  "bytecode": "0x608060405234801561001057600080fd5b50336000806101000a81548173ffffffffffffffffffffffffffffffffffffffff021916908373ffffffffffffffffffffffffffffffffffffffff1602179055506126da806100606000396000f3fe6080604052600436106100e85760003560e01c80636620216c1161008a578063c085632911610059578063c0856329146102f3578063c7c030d81461031c578063d7fe3b9214610347578063eaf7e32514610370576100e8565b80636620216c1461021b5780637d9eb0c5146102465780639515f2a514610283578063ab8ea018146102ae576100e8565b80633bb3a24d116100c65780633bb3a24d1461015a5780633f6bda93146101975780634c58c6c7146101d4578063555655c4146101ff576100e8565b80630779438c146100ed57806308d233dc1461011857806324600fc314610143575b600080fd5b3480156100f957600080fd5b5061010261039b565b60405161010f91906117fd565b60405180910390f35b34801561012457600080fd5b5061012d610561565b60405161013a919061182e565b60405180910390f35b34801561014f57600080fd5b506101586105fd565b005b34801561016657600080fd5b50610181600480360381019061017c9190611889565b61073d565b60405161018e9190611946565b60405180910390f35b3480156101a357600080fd5b506101be60048036038101906101b99190611889565b6107fa565b6040516101cb91906119df565b60405180910390f35b3480156101e057600080fd5b506101e9610861565b6040516101f691906117fd565b60405180910390f35b61021960048036038101906102149190611889565b61099a565b005b34801561022757600080fd5b50610230610b6d565b60405161023d91906117fd565b60405180910390f35b34801561025257600080fd5b5061026d60048036038101906102689190611889565b610ca5565b60405161027a9190611946565b60405180910390f35b34801561028f57600080fd5b50610298610d62565b6040516102a591906117fd565b60405180910390f35b3480156102ba57600080fd5b506102d560048036038101906102d09190611889565b610e50565b6040516102ea99989796959493929190611a56565b60405180910390f35b3480156102ff57600080fd5b5061031a60048036038101906103159190611af8565b6110a0565b005b34801561032857600080fd5b50610331611359565b60405161033e91906117fd565b60405180910390f35b34801561035357600080fd5b5061036e60048036038101906103699190611c6d565b611492565b005b34801561037c57600080fd5b506103856116fc565b604051610392919061182e565b60405180910390f35b6060600060018054905067ffffffffffffffff8111156103be576103bd611b42565b5b6040519080825280602002602001820160405280156103ec5781602001602082028036833780820191505090505b5090506000805b600180549050811015610558576001600381111561041457610413611968565b5b600260003373ffffffffffffffffffffffffffffffffffffffff1673ffffffffffffffffffffffffffffffffffffffff168152602001908152602001600020600083815260200190815260200160002060009054906101000a900460ff16600381111561048457610483611968565b5b148061051157506002600381111561049f5761049e611968565b5b600260003373ffffffffffffffffffffffffffffffffffffffff1673ffffffffffffffffffffffffffffffffffffffff168152602001908152602001600020600083815260200190815260200160002060009054906101000a900460ff16600381111561050f5761050e611968565b5b145b15610545578083838151811061052a57610529611d86565b5b602002602001018181525050818061054190611de4565b9250505b808061055090611de4565b9150506103f3565b50819250505090565b60003373ffffffffffffffffffffffffffffffffffffffff1660008054906101000a900473ffffffffffffffffffffffffffffffffffffffff1673ffffffffffffffffffffffffffffffffffffffff16146105f1576040517f08c379a00000000000000000000000000000000000000000000000000000000081526004016105e890611e9e565b60405180910390fd5b60004790508091505090565b3373ffffffffffffffffffffffffffffffffffffffff1660008054906101000a900473ffffffffffffffffffffffffffffffffffffffff1673ffffffffffffffffffffffffffffffffffffffff161461068b576040517f08c379a000000000000000000000000000000000000000000000000000000000815260040161068290611e9e565b60405180910390fd5b6000479050600081116106d3576040517f08c379a00000000000000000000000000000000000000000000000000000000081526004016106ca90611f0a565b60405180910390fd5b60008054906101000a900473ffffffffffffffffffffffffffffffffffffffff1673ffffffffffffffffffffffffffffffffffffffff166108fc829081150290604051600060405180830381858888f19350505050158015610739573d6000803e3d6000fd5b5050565b606060006001838154811061075557610754611d86565b5b90600052602060002090600b0201905080600101805461077490611f59565b80601f01602080910402602001604051908101604052809291908181526020018280546107a090611f59565b80156107ed5780601f106107c2576101008083540402835291602001916107ed565b820191906000526020600020905b8154815290600101906020018083116107d057829003601f168201915b5050505050915050919050565b6000600260003373ffffffffffffffffffffffffffffffffffffffff1673ffffffffffffffffffffffffffffffffffffffff168152602001908152602001600020600083815260200190815260200160002060009054906101000a900460ff169050919050565b6060600060018054905067ffffffffffffffff81111561088457610883611b42565b5b6040519080825280602002602001820160405280156108b25781602001602082028036833780820191505090505b5090506000805b60018054905081101561099157600260038111156108da576108d9611968565b5b600260003373ffffffffffffffffffffffffffffffffffffffff1673ffffffffffffffffffffffffffffffffffffffff168152602001908152602001600020600083815260200190815260200160002060009054906101000a900460ff16600381111561094a57610949611968565b5b0361097e578083838151811061096357610962611d86565b5b602002602001018181525050818061097a90611de4565b9250505b808061098990611de4565b9150506108b9565b50819250505090565b6000600182815481106109b0576109af611d86565b5b90600052602060002090600b020190508060020160009054906101000a900473ffffffffffffffffffffffffffffffffffffffff1673ffffffffffffffffffffffffffffffffffffffff163373ffffffffffffffffffffffffffffffffffffffff1603610a52576040517f08c379a0000000000000000000000000000000000000000000000000000000008152600401610a4990611ffc565b60405180910390fd5b6000151581600a0160009054906101000a900460ff16151514610aaa576040517f08c379a0000000000000000000000000000000000000000000000000000000008152600401610aa19061208e565b60405180910390fd5b80600701543414610af0576040517f08c379a0000000000000000000000000000000000000000000000000000000008152600401610ae790612120565b60405180910390fd5b6001600260003373ffffffffffffffffffffffffffffffffffffffff1673ffffffffffffffffffffffffffffffffffffffff168152602001908152602001600020600084815260200190815260200160002060006101000a81548160ff02191690836003811115610b6457610b63611968565b5b02179055505050565b6060600060018054905067ffffffffffffffff811115610b9057610b8f611b42565b5b604051908082528060200260200182016040528015610bbe5781602001602082028036833780820191505090505b5090506000805b600180549050811015610c9c57600380811115610be557610be4611968565b5b600260003373ffffffffffffffffffffffffffffffffffffffff1673ffffffffffffffffffffffffffffffffffffffff168152602001908152602001600020600083815260200190815260200160002060009054906101000a900460ff166003811115610c5557610c54611968565b5b03610c895780838381518110610c6e57610c6d611d86565b5b6020026020010181815250508180610c8590611de4565b9250505b8080610c9490611de4565b915050610bc5565b50819250505090565b6060600060018381548110610cbd57610cbc611d86565b5b90600052602060002090600b02019050806003018054610cdc90611f59565b80601f0160208091040260200160405190810160405280929190818152602001828054610d0890611f59565b8015610d555780601f10610d2a57610100808354040283529160200191610d55565b820191906000526020600020905b815481529060010190602001808311610d3857829003601f168201915b5050505050915050919050565b6060600060018054905067ffffffffffffffff811115610d8557610d84611b42565b5b604051908082528060200260200182016040528015610db35781602001602082028036833780820191505090505b5090506000805b600180549050811015610e47576000151560018281548110610ddf57610dde611d86565b5b90600052602060002090600b0201600a0160009054906101000a900460ff16151503610e345780838381518110610e1957610e18611d86565b5b6020026020010181815250508180610e3090611de4565b9250505b8080610e3f90611de4565b915050610dba565b50819250505090565b600060606000606080600080600080600060018b81548110610e7557610e74611d86565b5b90600052602060002090600b020190508060000154816001018260020160009054906101000a900473ffffffffffffffffffffffffffffffffffffffff16836005018460060185600701548660080154876009015488600a0160009054906101000a900460ff16878054610ee890611f59565b80601f0160208091040260200160405190810160405280929190818152602001828054610f1490611f59565b8015610f615780601f10610f3657610100808354040283529160200191610f61565b820191906000526020600020905b815481529060010190602001808311610f4457829003601f168201915b50505050509750858054610f7490611f59565b80601f0160208091040260200160405190810160405280929190818152602001828054610fa090611f59565b8015610fed5780601f10610fc257610100808354040283529160200191610fed565b820191906000526020600020905b815481529060010190602001808311610fd057829003601f168201915b5050505050955084805461100090611f59565b80601f016020809104026020016040519081016040528092919081815260200182805461102c90611f59565b80156110795780601f1061104e57610100808354040283529160200191611079565b820191906000526020600020905b81548152906001019060200180831161105c57829003601f168201915b50505050509450995099509950995099509950995099509950509193959799909294969850565b6000600183815481106110b6576110b5611d86565b5b90600052602060002090600b02019050600160038111156110da576110d9611968565b5b600260003373ffffffffffffffffffffffffffffffffffffffff1673ffffffffffffffffffffffffffffffffffffffff168152602001908152602001600020600085815260200190815260200160002060009054906101000a900460ff16600381111561114a57611149611968565b5b1461118a576040517f08c379a0000000000000000000000000000000000000000000000000000000008152600401611181906121b2565b60405180910390fd5b6005821115801561119c575060018210155b6111db576040517f08c379a00000000000000000000000000000000000000000000000000000000081526004016111d29061226a565b60405180910390fd5b600060058360056111ec919061228a565b6111f691906122be565b90508160020160009054906101000a900473ffffffffffffffffffffffffffffffffffffffff1673ffffffffffffffffffffffffffffffffffffffff166108fc61126c606461125e85606461124b919061228a565b876007015461170990919063ffffffff16565b61171f90919063ffffffff16565b9081150290604051600060405180830381858888f19350505050158015611297573d6000803e3d6000fd5b50600260038111156112ac576112ab611968565b5b600260003373ffffffffffffffffffffffffffffffffffffffff1673ffffffffffffffffffffffffffffffffffffffff168152602001908152602001600020600086815260200190815260200160002060009054906101000a900460ff16600381111561131c5761131b611968565b5b505081600801600081548092919061133390611de4565b91905055508282600901600082825461134c9190612300565b9250508190555050505050565b6060600060018054905067ffffffffffffffff81111561137c5761137b611b42565b5b6040519080825280602002602001820160405280156113aa5781602001602082028036833780820191505090505b5090506000805b60018054905081101561148957600160038111156113d2576113d1611968565b5b600260003373ffffffffffffffffffffffffffffffffffffffff1673ffffffffffffffffffffffffffffffffffffffff168152602001908152602001600020600083815260200190815260200160002060009054906101000a900460ff16600381111561144257611441611968565b5b03611476578083838151811061145b5761145a611d86565b5b602002602001018181525050818061147290611de4565b9250505b808061148190611de4565b9150506113b1565b50819250505090565b60008110156114d6576040517f08c379a00000000000000000000000000000000000000000000000000000000081526004016114cd906123a6565b60405180910390fd5b6000600180549050905060006040518061016001604052808381526020018981526020013373ffffffffffffffffffffffffffffffffffffffff168152602001888152602001878152602001868152602001858152602001848152602001600081526020016000815260200160001515815250905060018190806001815401808255809150506001900390600052602060002090600b02016000909190919091506000820151816000015560208201518160010190816115969190612572565b5060408201518160020160006101000a81548173ffffffffffffffffffffffffffffffffffffffff021916908373ffffffffffffffffffffffffffffffffffffffff16021790555060608201518160030190816115f39190612572565b5060808201518160040190816116099190612572565b5060a082015181600501908161161f9190612572565b5060c08201518160060190816116359190612572565b5060e082015181600701556101008201518160080155610120820151816009015561014082015181600a0160006101000a81548160ff02191690831515021790555050506003600260003373ffffffffffffffffffffffffffffffffffffffff1673ffffffffffffffffffffffffffffffffffffffff168152602001908152602001600020600084815260200190815260200160002060006101000a81548160ff021916908360038111156116ed576116ec611968565b5b02179055505050505050505050565b6000600180549050905090565b6000818361171791906122be565b905092915050565b6000818361172d9190612673565b905092915050565b600081519050919050565b600082825260208201905092915050565b6000819050602082019050919050565b6000819050919050565b61177481611761565b82525050565b6000611786838361176b565b60208301905092915050565b6000602082019050919050565b60006117aa82611735565b6117b48185611740565b93506117bf83611751565b8060005b838110156117f05781516117d7888261177a565b97506117e283611792565b9250506001810190506117c3565b5085935050505092915050565b60006020820190508181036000830152611817818461179f565b905092915050565b61182881611761565b82525050565b6000602082019050611843600083018461181f565b92915050565b6000604051905090565b600080fd5b600080fd5b61186681611761565b811461187157600080fd5b50565b6000813590506118838161185d565b92915050565b60006020828403121561189f5761189e611853565b5b60006118ad84828501611874565b91505092915050565b600081519050919050565b600082825260208201905092915050565b60005b838110156118f05780820151818401526020810190506118d5565b60008484015250505050565b6000601f19601f8301169050919050565b6000611918826118b6565b61192281856118c1565b93506119328185602086016118d2565b61193b816118fc565b840191505092915050565b60006020820190508181036000830152611960818461190d565b905092915050565b7f4e487b7100000000000000000000000000000000000000000000000000000000600052602160045260246000fd5b600481106119a8576119a7611968565b5b50565b60008190506119b982611997565b919050565b60006119c9826119ab565b9050919050565b6119d9816119be565b82525050565b60006020820190506119f460008301846119d0565b92915050565b600073ffffffffffffffffffffffffffffffffffffffff82169050919050565b6000611a25826119fa565b9050919050565b611a3581611a1a565b82525050565b60008115159050919050565b611a5081611a3b565b82525050565b600061012082019050611a6c600083018c61181f565b8181036020830152611a7e818b61190d565b9050611a8d604083018a611a2c565b8181036060830152611a9f818961190d565b90508181036080830152611ab3818861190d565b9050611ac260a083018761181f565b611acf60c083018661181f565b611adc60e083018561181f565b611aea610100830184611a47565b9a9950505050505050505050565b60008060408385031215611b0f57611b0e611853565b5b6000611b1d85828601611874565b9250506020611b2e85828601611874565b9150509250929050565b600080fd5b600080fd5b7f4e487b7100000000000000000000000000000000000000000000000000000000600052604160045260246000fd5b611b7a826118fc565b810181811067ffffffffffffffff82111715611b9957611b98611b42565b5b80604052505050565b6000611bac611849565b9050611bb88282611b71565b919050565b600067ffffffffffffffff821115611bd857611bd7611b42565b5b611be1826118fc565b9050602081019050919050565b82818337600083830152505050565b6000611c10611c0b84611bbd565b611ba2565b905082815260208101848484011115611c2c57611c2b611b3d565b5b611c37848285611bee565b509392505050565b600082601f830112611c5457611c53611b38565b5b8135611c64848260208601611bfd565b91505092915050565b60008060008060008060c08789031215611c8a57611c89611853565b5b600087013567ffffffffffffffff811115611ca857611ca7611858565b5b611cb489828a01611c3f565b965050602087013567ffffffffffffffff811115611cd557611cd4611858565b5b611ce189828a01611c3f565b955050604087013567ffffffffffffffff811115611d0257611d01611858565b5b611d0e89828a01611c3f565b945050606087013567ffffffffffffffff811115611d2f57611d2e611858565b5b611d3b89828a01611c3f565b935050608087013567ffffffffffffffff811115611d5c57611d5b611858565b5b611d6889828a01611c3f565b92505060a0611d7989828a01611874565b9150509295509295509295565b7f4e487b7100000000000000000000000000000000000000000000000000000000600052603260045260246000fd5b7f4e487b7100000000000000000000000000000000000000000000000000000000600052601160045260246000fd5b6000611def82611761565b91507fffffffffffffffffffffffffffffffffffffffffffffffffffffffffffffffff8203611e2157611e20611db5565b5b600182019050919050565b7f6f6e6c794465706c6f7965723a204f6e6c79206465706c6f7965722063616e2060008201527f61636365737320746f2074686973206d6574686f640000000000000000000000602082015250565b6000611e886035836118c1565b9150611e9382611e2c565b604082019050919050565b60006020820190508181036000830152611eb781611e7b565b9050919050565b7f4e46544d61726b65743a2062616c616e6365206973207a65726f000000000000600082015250565b6000611ef4601a836118c1565b9150611eff82611ebe565b602082019050919050565b60006020820190508181036000830152611f2381611ee7565b9050919050565b7f4e487b7100000000000000000000000000000000000000000000000000000000600052602260045260246000fd5b60006002820490506001821680611f7157607f821691505b602082108103611f8457611f83611f2a565b5b50919050565b7f546865207075626c69736865722063616e6e6f7420627579207468652069746560008201527f6d00000000000000000000000000000000000000000000000000000000000000602082015250565b6000611fe66021836118c1565b9150611ff182611f8a565b604082019050919050565b6000602082019050818103600083015261201581611fd9565b9050919050565b7f6275795350543a2054686973206974656d2063616e6e6f7420626520626f756760008201527f6874000000000000000000000000000000000000000000000000000000000000602082015250565b60006120786022836118c1565b91506120838261201c565b604082019050919050565b600060208201905081810360008301526120a78161206b565b9050919050565b7f6275795350543a20596f7520646f6e2774206d6174636820746865207072696360008201527f6500000000000000000000000000000000000000000000000000000000000000602082015250565b600061210a6021836118c1565b9150612115826120ae565b604082019050919050565b60006020820190508181036000830152612139816120fd565b9050919050565b7f7265766965775350543a2054686520757365722063616e6e6f7420726576696560008201527f7720666f722074686973204974656d2e00000000000000000000000000000000602082015250565b600061219c6030836118c1565b91506121a782612140565b604082019050919050565b600060208201905081810360008301526121cb8161218f565b9050919050565b7f7265766965775350543a20417267756d656e742076616c7565206572726f722c60008201527f207468652076616c7565206f662072617465206d7573742062652031203c3d2060208201527f72617465203c3d20350000000000000000000000000000000000000000000000604082015250565b60006122546049836118c1565b915061225f826121d2565b606082019050919050565b6000602082019050818103600083015261228381612247565b9050919050565b600061229582611761565b91506122a083611761565b92508282039050818111156122b8576122b7611db5565b5b92915050565b60006122c982611761565b91506122d483611761565b92508282026122e281611761565b915082820484148315176122f9576122f8611db5565b5b5092915050565b600061230b82611761565b915061231683611761565b925082820190508082111561232e5761232d611db5565b5b92915050565b7f6372656174655350543a207072696365206d757374206265206772656174657260008201527f207468616e206f7220657175616c7320746f2030000000000000000000000000602082015250565b60006123906034836118c1565b915061239b82612334565b604082019050919050565b600060208201905081810360008301526123bf81612383565b9050919050565b60008190508160005260206000209050919050565b60006020601f8301049050919050565b600082821b905092915050565b6000600883026124287fffffffffffffffffffffffffffffffffffffffffffffffffffffffffffffffff826123eb565b61243286836123eb565b95508019841693508086168417925050509392505050565b6000819050919050565b600061246f61246a61246584611761565b61244a565b611761565b9050919050565b6000819050919050565b61248983612454565b61249d61249582612476565b8484546123f8565b825550505050565b600090565b6124b26124a5565b6124bd818484612480565b505050565b5b818110156124e1576124d66000826124aa565b6001810190506124c3565b5050565b601f821115612526576124f7816123c6565b612500846123db565b8101602085101561250f578190505b61252361251b856123db565b8301826124c2565b50505b505050565b600082821c905092915050565b60006125496000198460080261252b565b1980831691505092915050565b60006125628383612538565b9150826002028217905092915050565b61257b826118b6565b67ffffffffffffffff81111561259457612593611b42565b5b61259e8254611f59565b6125a98282856124e5565b600060209050601f8311600181146125dc57600084156125ca578287015190505b6125d48582612556565b86555061263c565b601f1984166125ea866123c6565b60005b82811015612612578489015182556001820191506020850194506020810190506125ed565b8683101561262f578489015161262b601f891682612538565b8355505b6001600288020188555050505b505050505050565b7f4e487b7100000000000000000000000000000000000000000000000000000000600052601260045260246000fd5b600061267e82611761565b915061268983611761565b92508261269957612698612644565b5b82820490509291505056fea2646970667358221220cee769bde4c6577f60461918ac24776d0af369641e1e483c1bb52ba8ae4feea164736f6c63430008130033",
  "linkReferences": {},
  "deployedLinkReferences": {}
}