{
  "_format": "hh-sol-artifact-1",
  "contractName": "SPTMarket",
  "sourceName": "contracts/SPTMarket.sol",
  "abi": [
    {
      "inputs": [],
      "stateMutability": "nonpayable",
      "type": "constructor"
    },
    {
      "anonymous": false,
      "inputs": [
        {
          "indexed": false,
          "internalType": "uint256",
          "name": "id",
          "type": "uint256"
        },
        {
          "indexed": false,
          "internalType": "string",
          "name": "tokenURI",
          "type": "string"
        },
        {
          "indexed": false,
          "internalType": "address",
          "name": "publisher",
          "type": "address"
        },
        {
          "indexed": false,
          "internalType": "address[]",
          "name": "owners",
          "type": "address[]"
        },
        {
          "indexed": false,
          "internalType": "string",
          "name": "prompt",
          "type": "string"
        },
        {
          "indexed": false,
          "internalType": "string",
          "name": "params",
          "type": "string"
        },
        {
          "indexed": false,
          "internalType": "string",
          "name": "description",
          "type": "string"
        },
        {
          "indexed": false,
          "internalType": "string",
          "name": "model",
          "type": "string"
        },
        {
          "indexed": false,
          "internalType": "uint256",
          "name": "price",
          "type": "uint256"
        },
        {
          "indexed": false,
          "internalType": "bool",
          "name": "isCanceled",
          "type": "bool"
        }
      ],
      "name": "SPTUpdate",
      "type": "event"
    },
    {
      "inputs": [
        {
          "internalType": "uint256",
          "name": "id",
          "type": "uint256"
        }
      ],
      "name": "buySPT",
      "outputs": [],
      "stateMutability": "payable",
      "type": "function"
    },
    {
      "inputs": [],
      "name": "checkFunds",
      "outputs": [
        {
          "internalType": "uint256",
          "name": "",
          "type": "uint256"
        }
      ],
      "stateMutability": "view",
      "type": "function"
    },
    {
      "inputs": [
        {
          "internalType": "string",
          "name": "tokenURI",
          "type": "string"
        },
        {
          "internalType": "string",
          "name": "prompt",
          "type": "string"
        },
        {
          "internalType": "string",
          "name": "params",
          "type": "string"
        },
        {
          "internalType": "string",
          "name": "description",
          "type": "string"
        },
        {
          "internalType": "string",
          "name": "model",
          "type": "string"
        },
        {
          "internalType": "uint256",
          "name": "price",
          "type": "uint256"
        }
      ],
      "name": "createSPT",
      "outputs": [],
      "stateMutability": "nonpayable",
      "type": "function"
    },
    {
      "inputs": [],
      "name": "getListingSPT",
      "outputs": [
        {
          "internalType": "uint256[]",
          "name": "",
          "type": "uint256[]"
        }
      ],
      "stateMutability": "view",
      "type": "function"
    },
    {
      "inputs": [],
      "name": "getNumItems",
      "outputs": [
        {
          "internalType": "uint256",
          "name": "numItem",
          "type": "uint256"
        }
      ],
      "stateMutability": "view",
      "type": "function"
    },
    {
      "inputs": [],
      "name": "getOwnedSPTids",
      "outputs": [
        {
          "internalType": "uint256[]",
          "name": "",
          "type": "uint256[]"
        }
      ],
      "stateMutability": "view",
      "type": "function"
    },
    {
      "inputs": [],
      "name": "getPublishedSPTids",
      "outputs": [
        {
          "internalType": "uint256[]",
          "name": "",
          "type": "uint256[]"
        }
      ],
      "stateMutability": "view",
      "type": "function"
    },
    {
      "inputs": [
        {
          "internalType": "uint256",
          "name": "_id",
          "type": "uint256"
        }
      ],
      "name": "getSPTInfo",
      "outputs": [
        {
          "internalType": "uint256",
          "name": "id",
          "type": "uint256"
        },
        {
          "internalType": "string",
          "name": "tokenURI",
          "type": "string"
        },
        {
          "internalType": "address",
          "name": "publisher",
          "type": "address"
        },
        {
          "internalType": "address[]",
          "name": "owners",
          "type": "address[]"
        },
        {
          "internalType": "string",
          "name": "description",
          "type": "string"
        },
        {
          "internalType": "string",
          "name": "model",
          "type": "string"
        },
        {
          "internalType": "uint256",
          "name": "price",
          "type": "uint256"
        },
        {
          "internalType": "bool",
          "name": "isCanceled",
          "type": "bool"
        }
      ],
      "stateMutability": "view",
      "type": "function"
    },
    {
      "inputs": [
        {
          "internalType": "uint256",
          "name": "id",
          "type": "uint256"
        }
      ],
      "name": "getTokenURI",
      "outputs": [
        {
          "internalType": "string",
          "name": "tokenURI",
          "type": "string"
        }
      ],
      "stateMutability": "view",
      "type": "function"
    },
    {
      "inputs": [
        {
          "internalType": "uint256",
          "name": "id",
          "type": "uint256"
        }
      ],
      "name": "showPromptParams",
      "outputs": [
        {
          "internalType": "string",
          "name": "prompt",
          "type": "string"
        },
        {
          "internalType": "string",
          "name": "params",
          "type": "string"
        }
      ],
      "stateMutability": "view",
      "type": "function"
    },
    {
      "inputs": [
        {
          "internalType": "uint256",
          "name": "id",
          "type": "uint256"
        },
        {
          "internalType": "string",
          "name": "tokenURI",
          "type": "string"
        },
        {
          "internalType": "string",
          "name": "prompt",
          "type": "string"
        },
        {
          "internalType": "string",
          "name": "params",
          "type": "string"
        },
        {
          "internalType": "string",
          "name": "description",
          "type": "string"
        },
        {
          "internalType": "string",
          "name": "model",
          "type": "string"
        },
        {
          "internalType": "uint256",
          "name": "price",
          "type": "uint256"
        },
        {
          "internalType": "bool",
          "name": "isCanceled",
          "type": "bool"
        }
      ],
      "name": "updateSPT",
      "outputs": [],
      "stateMutability": "nonpayable",
      "type": "function"
    },
    {
      "inputs": [],
      "name": "withdrawFunds",
      "outputs": [],
      "stateMutability": "nonpayable",
      "type": "function"
    }
  ],
  "bytecode": "0x608060405234801561001057600080fd5b50336000806101000a81548173ffffffffffffffffffffffffffffffffffffffff021916908373ffffffffffffffffffffffffffffffffffffffff16021790555061293a806100606000396000f3fe6080604052600436106100a75760003560e01c80635ef15c6e116100645780635ef15c6e146101b05780636620216c146101d95780639515f2a514610204578063ab8ea0181461022f578063d7fe3b9214610273578063eaf7e3251461029c576100a7565b806308d233dc146100ac57806324600fc3146100d7578063380f7e0e146100ee5780633bb3a24d1461012c5780634c58c6c714610169578063555655c414610194575b600080fd5b3480156100b857600080fd5b506100c16102c7565b6040516100ce91906114f1565b60405180910390f35b3480156100e357600080fd5b506100ec610363565b005b3480156100fa57600080fd5b506101156004803603810190610110919061154c565b6104a3565b604051610123929190611609565b60405180910390f35b34801561013857600080fd5b50610153600480360381019061014e919061154c565b610647565b6040516101609190611640565b60405180910390f35b34801561017557600080fd5b5061017e610704565b60405161018b9190611720565b60405180910390f35b6101ae60048036038101906101a9919061154c565b6107c8565b005b3480156101bc57600080fd5b506101d760048036038101906101d291906118af565b610ab0565b005b3480156101e557600080fd5b506101ee610c0c565b6040516101fb9190611720565b60405180910390f35b34801561021057600080fd5b50610219610d34565b6040516102269190611720565b60405180910390f35b34801561023b57600080fd5b506102566004803603810190610251919061154c565b610e22565b60405161026a989796959493929190611aff565b60405180910390f35b34801561027f57600080fd5b5061029a60048036038101906102959190611b99565b6110ef565b005b3480156102a857600080fd5b506102b161132d565b6040516102be91906114f1565b60405180910390f35b60003373ffffffffffffffffffffffffffffffffffffffff1660008054906101000a900473ffffffffffffffffffffffffffffffffffffffff1673ffffffffffffffffffffffffffffffffffffffff1614610357576040517f08c379a000000000000000000000000000000000000000000000000000000000815260040161034e90611d24565b60405180910390fd5b60004790508091505090565b3373ffffffffffffffffffffffffffffffffffffffff1660008054906101000a900473ffffffffffffffffffffffffffffffffffffffff1673ffffffffffffffffffffffffffffffffffffffff16146103f1576040517f08c379a00000000000000000000000000000000000000000000000000000000081526004016103e890611d24565b60405180910390fd5b600047905060008111610439576040517f08c379a000000000000000000000000000000000000000000000000000000000815260040161043090611d90565b60405180910390fd5b60008054906101000a900473ffffffffffffffffffffffffffffffffffffffff1673ffffffffffffffffffffffffffffffffffffffff166108fc829081150290604051600060405180830381858888f1935050505015801561049f573d6000803e3d6000fd5b5050565b60608082600115156104b48261133a565b1515146104f6576040517f08c379a00000000000000000000000000000000000000000000000000000000081526004016104ed90611e22565b60405180910390fd5b60006001858154811061050c5761050b611e42565b5b90600052602060002090600a02019050806004018160050181805461053090611ea0565b80601f016020809104026020016040519081016040528092919081815260200182805461055c90611ea0565b80156105a95780601f1061057e576101008083540402835291602001916105a9565b820191906000526020600020905b81548152906001019060200180831161058c57829003601f168201915b505050505091508080546105bc90611ea0565b80601f01602080910402602001604051908101604052809291908181526020018280546105e890611ea0565b80156106355780601f1061060a57610100808354040283529160200191610635565b820191906000526020600020905b81548152906001019060200180831161061857829003601f168201915b50505050509050935093505050915091565b606060006001838154811061065f5761065e611e42565b5b90600052602060002090600a0201905080600101805461067e90611ea0565b80601f01602080910402602001604051908101604052809291908181526020018280546106aa90611ea0565b80156106f75780601f106106cc576101008083540402835291602001916106f7565b820191906000526020600020905b8154815290600101906020018083116106da57829003601f168201915b5050505050915050919050565b6060600060018054905067ffffffffffffffff8111156107275761072661174c565b5b6040519080825280602002602001820160405280156107555781602001602082028036833780820191505090505b5090506000805b6001805490508110156107bf57600115156107768261133a565b1515036107ac578083838151811061079157610790611e42565b5b60200260200101818152505081806107a890611f00565b9250505b80806107b790611f00565b91505061075c565b50819250505090565b6000600182815481106107de576107dd611e42565b5b90600052602060002090600a020190508060020160009054906101000a900473ffffffffffffffffffffffffffffffffffffffff1673ffffffffffffffffffffffffffffffffffffffff163373ffffffffffffffffffffffffffffffffffffffff1603610880576040517f08c379a000000000000000000000000000000000000000000000000000000000815260040161087790611fba565b60405180910390fd5b600015158160090160009054906101000a900460ff161515146108d8576040517f08c379a00000000000000000000000000000000000000000000000000000000081526004016108cf9061204c565b60405180910390fd5b8060080154341461091e576040517f08c379a0000000000000000000000000000000000000000000000000000000008152600401610915906120de565b60405180910390fd5b80600301339080600181540180825580915050600190039060005260206000200160009091909190916101000a81548173ffffffffffffffffffffffffffffffffffffffff021916908373ffffffffffffffffffffffffffffffffffffffff1602179055508060020160009054906101000a900473ffffffffffffffffffffffffffffffffffffffff1673ffffffffffffffffffffffffffffffffffffffff166108fc6109ec60646109de605a866008015461140590919063ffffffff16565b61141b90919063ffffffff16565b9081150290604051600060405180830381858888f19350505050158015610a17573d6000803e3d6000fd5b507f7ba603d992f06dd2d557bd8128bd806f05252516536fe0d1d32ad3724dce628482826001018360020160009054906101000a900473ffffffffffffffffffffffffffffffffffffffff16846003018560040186600501876006018860070189600801548a60090160009054906101000a900460ff16604051610aa49a99989796959493929190612283565b60405180910390a15050565b87600060018281548110610ac757610ac6611e42565b5b90600052602060002090600a020190503373ffffffffffffffffffffffffffffffffffffffff168160020160009054906101000a900473ffffffffffffffffffffffffffffffffffffffff1673ffffffffffffffffffffffffffffffffffffffff1614610b69576040517f08c379a0000000000000000000000000000000000000000000000000000000008152600401610b60906123bb565b60405180910390fd5b600060018b81548110610b7f57610b7e611e42565b5b90600052602060002090600a020190507f7ba603d992f06dd2d557bd8128bd806f05252516536fe0d1d32ad3724dce62848b8b8360020160009054906101000a900473ffffffffffffffffffffffffffffffffffffffff16846003018d8d8d8d8d8d604051610bf79a999897969594939291906123db565b60405180910390a15050505050505050505050565b6060600060018054905067ffffffffffffffff811115610c2f57610c2e61174c565b5b604051908082528060200260200182016040528015610c5d5781602001602082028036833780820191505090505b5090506000805b600180549050811015610d2b573373ffffffffffffffffffffffffffffffffffffffff1660018281548110610c9c57610c9b611e42565b5b90600052602060002090600a020160020160009054906101000a900473ffffffffffffffffffffffffffffffffffffffff1673ffffffffffffffffffffffffffffffffffffffff1603610d185780838381518110610cfd57610cfc611e42565b5b6020026020010181815250508180610d1490611f00565b9250505b8080610d2390611f00565b915050610c64565b50819250505090565b6060600060018054905067ffffffffffffffff811115610d5757610d5661174c565b5b604051908082528060200260200182016040528015610d855781602001602082028036833780820191505090505b5090506000805b600180549050811015610e19576000151560018281548110610db157610db0611e42565b5b90600052602060002090600a020160090160009054906101000a900460ff16151503610e065780838381518110610deb57610dea611e42565b5b6020026020010181815250508180610e0290611f00565b9250505b8080610e1190611f00565b915050610d8c565b50819250505090565b6000606060006060806060600080600060018a81548110610e4657610e45611e42565b5b90600052602060002090600a020190508060000154816001018260020160009054906101000a900473ffffffffffffffffffffffffffffffffffffffff1683600301846006018560070186600801548760090160009054906101000a900460ff16868054610eb390611ea0565b80601f0160208091040260200160405190810160405280929190818152602001828054610edf90611ea0565b8015610f2c5780601f10610f0157610100808354040283529160200191610f2c565b820191906000526020600020905b815481529060010190602001808311610f0f57829003601f168201915b5050505050965084805480602002602001604051908101604052809291908181526020018280548015610fb457602002820191906000526020600020905b8160009054906101000a900473ffffffffffffffffffffffffffffffffffffffff1673ffffffffffffffffffffffffffffffffffffffff1681526020019060010190808311610f6a575b50505050509450838054610fc790611ea0565b80601f0160208091040260200160405190810160405280929190818152602001828054610ff390611ea0565b80156110405780601f1061101557610100808354040283529160200191611040565b820191906000526020600020905b81548152906001019060200180831161102357829003601f168201915b5050505050935082805461105390611ea0565b80601f016020809104026020016040519081016040528092919081815260200182805461107f90611ea0565b80156110cc5780601f106110a1576101008083540402835291602001916110cc565b820191906000526020600020905b8154815290600101906020018083116110af57829003601f168201915b505050505092509850985098509850985098509850985050919395975091939597565b6000811015611133576040517f08c379a000000000000000000000000000000000000000000000000000000000815260040161112a90612513565b60405180910390fd5b60606000600180549050905060006040518061014001604052808381526020018a81526020013373ffffffffffffffffffffffffffffffffffffffff16815260200184815260200189815260200188815260200187815260200186815260200185815260200160001515815250905060018190806001815401808255809150506001900390600052602060002090600a02016000909190919091506000820151816000015560208201518160010190816111ed91906126ca565b5060408201518160020160006101000a81548173ffffffffffffffffffffffffffffffffffffffff021916908373ffffffffffffffffffffffffffffffffffffffff1602179055506060820151816003019080519060200190611251929190611431565b50608082015181600401908161126791906126ca565b5060a082015181600501908161127d91906126ca565b5060c082015181600601908161129391906126ca565b5060e08201518160070190816112a991906126ca565b5061010082015181600801556101208201518160090160006101000a81548160ff02191690831515021790555050507f7ba603d992f06dd2d557bd8128bd806f05252516536fe0d1d32ad3724dce6284828a33868c8c8c8c8c600060405161131a9a9998979695949392919061279c565b60405180910390a1505050505050505050565b6000600180549050905090565b6000806001838154811061135157611350611e42565b5b90600052602060002090600a0201905060005b81600301805490508110156113fe5781600301818154811061138957611388611e42565b5b9060005260206000200160009054906101000a900473ffffffffffffffffffffffffffffffffffffffff1673ffffffffffffffffffffffffffffffffffffffff163373ffffffffffffffffffffffffffffffffffffffff16036113eb57600192505b80806113f690611f00565b915050611364565b5050919050565b600081836114139190612862565b905092915050565b6000818361142991906128d3565b905092915050565b8280548282559060005260206000209081019282156114aa579160200282015b828111156114a95782518260006101000a81548173ffffffffffffffffffffffffffffffffffffffff021916908373ffffffffffffffffffffffffffffffffffffffff16021790555091602001919060010190611451565b5b5090506114b791906114bb565b5090565b5b808211156114d45760008160009055506001016114bc565b5090565b6000819050919050565b6114eb816114d8565b82525050565b600060208201905061150660008301846114e2565b92915050565b6000604051905090565b600080fd5b600080fd5b611529816114d8565b811461153457600080fd5b50565b60008135905061154681611520565b92915050565b60006020828403121561156257611561611516565b5b600061157084828501611537565b91505092915050565b600081519050919050565b600082825260208201905092915050565b60005b838110156115b3578082015181840152602081019050611598565b60008484015250505050565b6000601f19601f8301169050919050565b60006115db82611579565b6115e58185611584565b93506115f5818560208601611595565b6115fe816115bf565b840191505092915050565b6000604082019050818103600083015261162381856115d0565b9050818103602083015261163781846115d0565b90509392505050565b6000602082019050818103600083015261165a81846115d0565b905092915050565b600081519050919050565b600082825260208201905092915050565b6000819050602082019050919050565b611697816114d8565b82525050565b60006116a9838361168e565b60208301905092915050565b6000602082019050919050565b60006116cd82611662565b6116d7818561166d565b93506116e28361167e565b8060005b838110156117135781516116fa888261169d565b9750611705836116b5565b9250506001810190506116e6565b5085935050505092915050565b6000602082019050818103600083015261173a81846116c2565b905092915050565b600080fd5b600080fd5b7f4e487b7100000000000000000000000000000000000000000000000000000000600052604160045260246000fd5b611784826115bf565b810181811067ffffffffffffffff821117156117a3576117a261174c565b5b80604052505050565b60006117b661150c565b90506117c2828261177b565b919050565b600067ffffffffffffffff8211156117e2576117e161174c565b5b6117eb826115bf565b9050602081019050919050565b82818337600083830152505050565b600061181a611815846117c7565b6117ac565b90508281526020810184848401111561183657611835611747565b5b6118418482856117f8565b509392505050565b600082601f83011261185e5761185d611742565b5b813561186e848260208601611807565b91505092915050565b60008115159050919050565b61188c81611877565b811461189757600080fd5b50565b6000813590506118a981611883565b92915050565b600080600080600080600080610100898b0312156118d0576118cf611516565b5b60006118de8b828c01611537565b985050602089013567ffffffffffffffff8111156118ff576118fe61151b565b5b61190b8b828c01611849565b975050604089013567ffffffffffffffff81111561192c5761192b61151b565b5b6119388b828c01611849565b965050606089013567ffffffffffffffff8111156119595761195861151b565b5b6119658b828c01611849565b955050608089013567ffffffffffffffff8111156119865761198561151b565b5b6119928b828c01611849565b94505060a089013567ffffffffffffffff8111156119b3576119b261151b565b5b6119bf8b828c01611849565b93505060c06119d08b828c01611537565b92505060e06119e18b828c0161189a565b9150509295985092959890939650565b600073ffffffffffffffffffffffffffffffffffffffff82169050919050565b6000611a1c826119f1565b9050919050565b611a2c81611a11565b82525050565b600081519050919050565b600082825260208201905092915050565b6000819050602082019050919050565b611a6781611a11565b82525050565b6000611a798383611a5e565b60208301905092915050565b6000602082019050919050565b6000611a9d82611a32565b611aa78185611a3d565b9350611ab283611a4e565b8060005b83811015611ae3578151611aca8882611a6d565b9750611ad583611a85565b925050600181019050611ab6565b5085935050505092915050565b611af981611877565b82525050565b600061010082019050611b15600083018b6114e2565b8181036020830152611b27818a6115d0565b9050611b366040830189611a23565b8181036060830152611b488188611a92565b90508181036080830152611b5c81876115d0565b905081810360a0830152611b7081866115d0565b9050611b7f60c08301856114e2565b611b8c60e0830184611af0565b9998505050505050505050565b60008060008060008060c08789031215611bb657611bb5611516565b5b600087013567ffffffffffffffff811115611bd457611bd361151b565b5b611be089828a01611849565b965050602087013567ffffffffffffffff811115611c0157611c0061151b565b5b611c0d89828a01611849565b955050604087013567ffffffffffffffff811115611c2e57611c2d61151b565b5b611c3a89828a01611849565b945050606087013567ffffffffffffffff811115611c5b57611c5a61151b565b5b611c6789828a01611849565b935050608087013567ffffffffffffffff811115611c8857611c8761151b565b5b611c9489828a01611849565b92505060a0611ca589828a01611537565b9150509295509295509295565b7f6f6e6c794465706c6f7965723a204f6e6c79206465706c6f7965722063616e2060008201527f61636365737320746f2074686973206d6574686f640000000000000000000000602082015250565b6000611d0e603583611584565b9150611d1982611cb2565b604082019050919050565b60006020820190508181036000830152611d3d81611d01565b9050919050565b7f4e46544d61726b65743a2062616c616e6365206973207a65726f000000000000600082015250565b6000611d7a601a83611584565b9150611d8582611d44565b602082019050919050565b60006020820190508181036000830152611da981611d6d565b9050919050565b7f6f6e6c794f776e6572733a204f6e6c79206f776e6572732063616e206163636560008201527f737320746f2074686973206d6574686f64000000000000000000000000000000602082015250565b6000611e0c603183611584565b9150611e1782611db0565b604082019050919050565b60006020820190508181036000830152611e3b81611dff565b9050919050565b7f4e487b7100000000000000000000000000000000000000000000000000000000600052603260045260246000fd5b7f4e487b7100000000000000000000000000000000000000000000000000000000600052602260045260246000fd5b60006002820490506001821680611eb857607f821691505b602082108103611ecb57611eca611e71565b5b50919050565b7f4e487b7100000000000000000000000000000000000000000000000000000000600052601160045260246000fd5b6000611f0b826114d8565b91507fffffffffffffffffffffffffffffffffffffffffffffffffffffffffffffffff8203611f3d57611f3c611ed1565b5b600182019050919050565b7f546865207075626c69736865722063616e6e6f7420627579207468652069746560008201527f6d00000000000000000000000000000000000000000000000000000000000000602082015250565b6000611fa4602183611584565b9150611faf82611f48565b604082019050919050565b60006020820190508181036000830152611fd381611f97565b9050919050565b7f6275795350543a2054686973206974656d2063616e6e6f7420626520626f756760008201527f6874000000000000000000000000000000000000000000000000000000000000602082015250565b6000612036602283611584565b915061204182611fda565b604082019050919050565b6000602082019050818103600083015261206581612029565b9050919050565b7f6275795350543a20596f7520646f6e2774206d6174636820746865207072696360008201527f6500000000000000000000000000000000000000000000000000000000000000602082015250565b60006120c8602183611584565b91506120d38261206c565b604082019050919050565b600060208201905081810360008301526120f7816120bb565b9050919050565b60008190508160005260206000209050919050565b6000815461212081611ea0565b61212a8186611584565b94506001821660008114612145576001811461215b5761218e565b60ff19831686528115156020028601935061218e565b612164856120fe565b60005b8381101561218657815481890152600182019150602081019050612167565b808801955050505b50505092915050565b600081549050919050565b60008190508160005260206000209050919050565b60008160001c9050919050565b600073ffffffffffffffffffffffffffffffffffffffff82169050919050565b60006121f76121f2836121b7565b6121c4565b9050919050565b600061220a82546121e4565b9050919050565b6000600182019050919050565b600061222982612197565b6122338185611a3d565b935061223e836121a2565b8060005b8381101561227657612253826121fe565b61225d8882611a6d565b975061226883612211565b925050600181019050612242565b5085935050505092915050565b600061014082019050612299600083018d6114e2565b81810360208301526122ab818c612113565b90506122ba604083018b611a23565b81810360608301526122cc818a61221e565b905081810360808301526122e08189612113565b905081810360a08301526122f48188612113565b905081810360c08301526123088187612113565b905081810360e083015261231c8186612113565b905061232c6101008301856114e2565b61233a610120830184611af0565b9b9a5050505050505050505050565b7f6f6e6c795075626c69736865723a204f6e6c79207075626c697368657220636160008201527f6e2061636365737320746f2074686973206d6574686f64000000000000000000602082015250565b60006123a5603783611584565b91506123b082612349565b604082019050919050565b600060208201905081810360008301526123d481612398565b9050919050565b6000610140820190506123f1600083018d6114e2565b8181036020830152612403818c6115d0565b9050612412604083018b611a23565b8181036060830152612424818a61221e565b9050818103608083015261243881896115d0565b905081810360a083015261244c81886115d0565b905081810360c083015261246081876115d0565b905081810360e083015261247481866115d0565b90506124846101008301856114e2565b612492610120830184611af0565b9b9a5050505050505050505050565b7f6372656174655350543a207072696365206d757374206265206772656174657260008201527f207468616e206f7220657175616c7320746f2030000000000000000000000000602082015250565b60006124fd603483611584565b9150612508826124a1565b604082019050919050565b6000602082019050818103600083015261252c816124f0565b9050919050565b60006020601f8301049050919050565b600082821b905092915050565b6000600883026125807fffffffffffffffffffffffffffffffffffffffffffffffffffffffffffffffff82612543565b61258a8683612543565b95508019841693508086168417925050509392505050565b6000819050919050565b60006125c76125c26125bd846114d8565b6125a2565b6114d8565b9050919050565b6000819050919050565b6125e1836125ac565b6125f56125ed826125ce565b848454612550565b825550505050565b600090565b61260a6125fd565b6126158184846125d8565b505050565b5b818110156126395761262e600082612602565b60018101905061261b565b5050565b601f82111561267e5761264f816120fe565b61265884612533565b81016020851015612667578190505b61267b61267385612533565b83018261261a565b50505b505050565b600082821c905092915050565b60006126a160001984600802612683565b1980831691505092915050565b60006126ba8383612690565b9150826002028217905092915050565b6126d382611579565b67ffffffffffffffff8111156126ec576126eb61174c565b5b6126f68254611ea0565b61270182828561263d565b600060209050601f8311600181146127345760008415612722578287015190505b61272c85826126ae565b865550612794565b601f198416612742866120fe565b60005b8281101561276a57848901518255600182019150602085019450602081019050612745565b868310156127875784890151612783601f891682612690565b8355505b6001600288020188555050505b505050505050565b6000610140820190506127b2600083018d6114e2565b81810360208301526127c4818c6115d0565b90506127d3604083018b611a23565b81810360608301526127e5818a611a92565b905081810360808301526127f981896115d0565b905081810360a083015261280d81886115d0565b905081810360c083015261282181876115d0565b905081810360e083015261283581866115d0565b90506128456101008301856114e2565b612853610120830184611af0565b9b9a5050505050505050505050565b600061286d826114d8565b9150612878836114d8565b9250828202612886816114d8565b9150828204841483151761289d5761289c611ed1565b5b5092915050565b7f4e487b7100000000000000000000000000000000000000000000000000000000600052601260045260246000fd5b60006128de826114d8565b91506128e9836114d8565b9250826128f9576128f86128a4565b5b82820490509291505056fea26469706673582212207cc9643b1603eef81d7f2329686e143252262c2362f88e2417e0fa074b9deca064736f6c63430008130033",
  "linkReferences": {},
  "deployedLinkReferences": {}
}