{
    "_format": "hh-sol-artifact-1",
    "contractName": "SPTMarket",
    "sourceName": "contracts/SPTMarket.sol",
    "abi": [
        {
            "anonymous": false,
            "inputs": [
                {
                    "indexed": false,
                    "internalType": "uint256",
                    "name": "id",
                    "type": "uint256"
                },
                {
                    "indexed": false,
                    "internalType": "string",
                    "name": "tokenURI",
                    "type": "string"
                },
                {
                    "indexed": false,
                    "internalType": "address",
                    "name": "publisher",
                    "type": "address"
                },
                {
                    "indexed": false,
                    "internalType": "address[]",
                    "name": "owners",
                    "type": "address[]"
                },
                {
                    "indexed": false,
                    "internalType": "string",
                    "name": "prompt",
                    "type": "string"
                },
                {
                    "indexed": false,
                    "internalType": "string",
                    "name": "description",
                    "type": "string"
                },
                {
                    "indexed": false,
                    "internalType": "string",
                    "name": "model",
                    "type": "string"
                },
                {
                    "indexed": false,
                    "internalType": "uint256",
                    "name": "price",
                    "type": "uint256"
                },
                {
                    "indexed": false,
                    "internalType": "bool",
                    "name": "isCanceled",
                    "type": "bool"
                }
            ],
            "name": "SPTUpdate",
            "type": "event"
        },
        {
            "inputs": [
                {
                    "internalType": "uint256",
                    "name": "id",
                    "type": "uint256"
                }
            ],
            "name": "buySPT",
            "outputs": [],
            "stateMutability": "payable",
            "type": "function"
        },
        {
            "inputs": [
                {
                    "internalType": "string",
                    "name": "tokenURI",
                    "type": "string"
                },
                {
                    "internalType": "string",
                    "name": "prompt",
                    "type": "string"
                },
                {
                    "internalType": "string",
                    "name": "description",
                    "type": "string"
                },
                {
                    "internalType": "string",
                    "name": "model",
                    "type": "string"
                },
                {
                    "internalType": "uint256",
                    "name": "price",
                    "type": "uint256"
                }
            ],
            "name": "createSPT",
            "outputs": [],
            "stateMutability": "nonpayable",
            "type": "function"
        },
        {
            "inputs": [
                {
                    "internalType": "uint256",
                    "name": "_id",
                    "type": "uint256"
                }
            ],
            "name": "getSPTInfo",
            "outputs": [
                {
                    "internalType": "uint256",
                    "name": "id",
                    "type": "uint256"
                },
                {
                    "internalType": "string",
                    "name": "tokenURI",
                    "type": "string"
                },
                {
                    "internalType": "address",
                    "name": "publisher",
                    "type": "address"
                },
                {
                    "internalType": "address[]",
                    "name": "owners",
                    "type": "address[]"
                },
                {
                    "internalType": "string",
                    "name": "prompt",
                    "type": "string"
                },
                {
                    "internalType": "string",
                    "name": "description",
                    "type": "string"
                },
                {
                    "internalType": "string",
                    "name": "model",
                    "type": "string"
                },
                {
                    "internalType": "uint256",
                    "name": "price",
                    "type": "uint256"
                },
                {
                    "internalType": "bool",
                    "name": "isCanceled",
                    "type": "bool"
                }
            ],
            "stateMutability": "view",
            "type": "function"
        },
        {
            "inputs": [
                {
                    "internalType": "uint256",
                    "name": "id",
                    "type": "uint256"
                }
            ],
            "name": "showPrompt",
            "outputs": [
                {
                    "internalType": "string",
                    "name": "",
                    "type": "string"
                }
            ],
            "stateMutability": "view",
            "type": "function"
        },
        {
            "inputs": [
                {
                    "internalType": "uint256",
                    "name": "id",
                    "type": "uint256"
                },
                {
                    "internalType": "string",
                    "name": "tokenURI",
                    "type": "string"
                },
                {
                    "internalType": "string",
                    "name": "prompt",
                    "type": "string"
                },
                {
                    "internalType": "string",
                    "name": "description",
                    "type": "string"
                },
                {
                    "internalType": "string",
                    "name": "model",
                    "type": "string"
                },
                {
                    "internalType": "uint256",
                    "name": "price",
                    "type": "uint256"
                },
                {
                    "internalType": "bool",
                    "name": "isCanceled",
                    "type": "bool"
                }
            ],
            "name": "updateSPT",
            "outputs": [],
            "stateMutability": "nonpayable",
            "type": "function"
        }
    ],
    "bytecode": "0x608060405234801561001057600080fd5b50611d01806100206000396000f3fe60806040526004361061004a5760003560e01c80630ed575b11461004f578063555655c41461008c578063ab8ea018146100a8578063bac9293e146100ed578063d43464ec14610116575b600080fd5b34801561005b57600080fd5b5061007660048036038101906100719190610cf5565b61013f565b6040516100839190610db2565b60405180910390f35b6100a660048036038101906100a19190610cf5565b61030a565b005b3480156100b457600080fd5b506100cf60048036038101906100ca9190610cf5565b610557565b6040516100e499989796959493929190610efd565b60405180910390f35b3480156100f957600080fd5b50610114600480360381019061010f91906110e2565b6108b8565b005b34801561012257600080fd5b5061013d600480360381019061013891906111f9565b610ad5565b005b6060816000808083815481106101585761015761130b565b5b9060005260206000209060090201905060005b8160030180549050811015610205578160030181815481106101905761018f61130b565b5b9060005260206000200160009054906101000a900473ffffffffffffffffffffffffffffffffffffffff1673ffffffffffffffffffffffffffffffffffffffff163373ffffffffffffffffffffffffffffffffffffffff16036101f257600192505b80806101fd90611369565b91505061016b565b50600115158215151461024d576040517f08c379a000000000000000000000000000000000000000000000000000000000815260040161024490611423565b60405180910390fd5b60008086815481106102625761026161130b565b5b9060005260206000209060090201905080600401805461028190611472565b80601f01602080910402602001604051908101604052809291908181526020018280546102ad90611472565b80156102fa5780601f106102cf576101008083540402835291602001916102fa565b820191906000526020600020905b8154815290600101906020018083116102dd57829003601f168201915b5050505050945050505050919050565b600080828154811061031f5761031e61130b565b5b906000526020600020906009020190508060020160009054906101000a900473ffffffffffffffffffffffffffffffffffffffff1673ffffffffffffffffffffffffffffffffffffffff163373ffffffffffffffffffffffffffffffffffffffff16036103c1576040517f08c379a00000000000000000000000000000000000000000000000000000000081526004016103b890611515565b60405180910390fd5b600015158160080160009054906101000a900460ff16151514610419576040517f08c379a0000000000000000000000000000000000000000000000000000000008152600401610410906115a7565b60405180910390fd5b8060070154341461045f576040517f08c379a000000000000000000000000000000000000000000000000000000000815260040161045690611639565b60405180910390fd5b80600301339080600181540180825580915050600190039060005260206000200160009091909190916101000a81548173ffffffffffffffffffffffffffffffffffffffff021916908373ffffffffffffffffffffffffffffffffffffffff1602179055507f9eb298396fd7c722885c524067eca75ab662bd6d42fbb5dd95c9062759610ae182826001018360020160009054906101000a900473ffffffffffffffffffffffffffffffffffffffff168460030185600401866005018760060188600701548960080160009054906101000a900460ff1660405161054b999897969594939291906117de565b60405180910390a15050565b6000606060006060806060806000806000808b8154811061057b5761057a61130b565b5b906000526020600020906009020190508060000154816001018260020160009054906101000a900473ffffffffffffffffffffffffffffffffffffffff168360030184600401856005018660060187600701548860080160009054906101000a900460ff168780546105ec90611472565b80601f016020809104026020016040519081016040528092919081815260200182805461061890611472565b80156106655780601f1061063a57610100808354040283529160200191610665565b820191906000526020600020905b81548152906001019060200180831161064857829003601f168201915b50505050509750858054806020026020016040519081016040528092919081815260200182805480156106ed57602002820191906000526020600020905b8160009054906101000a900473ffffffffffffffffffffffffffffffffffffffff1673ffffffffffffffffffffffffffffffffffffffff16815260200190600101908083116106a3575b5050505050955084805461070090611472565b80601f016020809104026020016040519081016040528092919081815260200182805461072c90611472565b80156107795780601f1061074e57610100808354040283529160200191610779565b820191906000526020600020905b81548152906001019060200180831161075c57829003601f168201915b5050505050945083805461078c90611472565b80601f01602080910402602001604051908101604052809291908181526020018280546107b890611472565b80156108055780601f106107da57610100808354040283529160200191610805565b820191906000526020600020905b8154815290600101906020018083116107e857829003601f168201915b5050505050935082805461081890611472565b80601f016020809104026020016040519081016040528092919081815260200182805461084490611472565b80156108915780601f1061086657610100808354040283529160200191610891565b820191906000526020600020905b81548152906001019060200180831161087457829003601f168201915b50505050509250995099509950995099509950995099509950509193959799909294969850565b60008110156108fc576040517f08c379a00000000000000000000000000000000000000000000000000000000081526004016108f390611900565b60405180910390fd5b606060008080549050905060006040518061012001604052808381526020018981526020013373ffffffffffffffffffffffffffffffffffffffff16815260200184815260200188815260200187815260200186815260200185815260200160001515815250905060008190806001815401808255809150506001900390600052602060002090600902016000909190919091506000820151816000015560208201518160010190816109af9190611ab7565b5060408201518160020160006101000a81548173ffffffffffffffffffffffffffffffffffffffff021916908373ffffffffffffffffffffffffffffffffffffffff1602179055506060820151816003019080519060200190610a13929190610c04565b506080820151816004019081610a299190611ab7565b5060a0820151816005019081610a3f9190611ab7565b5060c0820151816006019081610a559190611ab7565b5060e082015181600701556101008201518160080160006101000a81548160ff02191690831515021790555050507f9eb298396fd7c722885c524067eca75ab662bd6d42fbb5dd95c9062759610ae1828933868b8b8b8b6000604051610ac399989796959493929190610efd565b60405180910390a15050505050505050565b6000808881548110610aea57610ae961130b565b5b906000526020600020906009020190508060020160009054906101000a900473ffffffffffffffffffffffffffffffffffffffff1673ffffffffffffffffffffffffffffffffffffffff163373ffffffffffffffffffffffffffffffffffffffff1614610b8c576040517f08c379a0000000000000000000000000000000000000000000000000000000008152600401610b8390611bfb565b60405180910390fd5b7f9eb298396fd7c722885c524067eca75ab662bd6d42fbb5dd95c9062759610ae188888360020160009054906101000a900473ffffffffffffffffffffffffffffffffffffffff16846003018a8a8a8a8a604051610bf299989796959493929190611c1b565b60405180910390a15050505050505050565b828054828255906000526020600020908101928215610c7d579160200282015b82811115610c7c5782518260006101000a81548173ffffffffffffffffffffffffffffffffffffffff021916908373ffffffffffffffffffffffffffffffffffffffff16021790555091602001919060010190610c24565b5b509050610c8a9190610c8e565b5090565b5b80821115610ca7576000816000905550600101610c8f565b5090565b6000604051905090565b600080fd5b600080fd5b6000819050919050565b610cd281610cbf565b8114610cdd57600080fd5b50565b600081359050610cef81610cc9565b92915050565b600060208284031215610d0b57610d0a610cb5565b5b6000610d1984828501610ce0565b91505092915050565b600081519050919050565b600082825260208201905092915050565b60005b83811015610d5c578082015181840152602081019050610d41565b60008484015250505050565b6000601f19601f8301169050919050565b6000610d8482610d22565b610d8e8185610d2d565b9350610d9e818560208601610d3e565b610da781610d68565b840191505092915050565b60006020820190508181036000830152610dcc8184610d79565b905092915050565b610ddd81610cbf565b82525050565b600073ffffffffffffffffffffffffffffffffffffffff82169050919050565b6000610e0e82610de3565b9050919050565b610e1e81610e03565b82525050565b600081519050919050565b600082825260208201905092915050565b6000819050602082019050919050565b610e5981610e03565b82525050565b6000610e6b8383610e50565b60208301905092915050565b6000602082019050919050565b6000610e8f82610e24565b610e998185610e2f565b9350610ea483610e40565b8060005b83811015610ed5578151610ebc8882610e5f565b9750610ec783610e77565b925050600181019050610ea8565b5085935050505092915050565b60008115159050919050565b610ef781610ee2565b82525050565b600061012082019050610f13600083018c610dd4565b8181036020830152610f25818b610d79565b9050610f34604083018a610e15565b8181036060830152610f468189610e84565b90508181036080830152610f5a8188610d79565b905081810360a0830152610f6e8187610d79565b905081810360c0830152610f828186610d79565b9050610f9160e0830185610dd4565b610f9f610100830184610eee565b9a9950505050505050505050565b600080fd5b600080fd5b7f4e487b7100000000000000000000000000000000000000000000000000000000600052604160045260246000fd5b610fef82610d68565b810181811067ffffffffffffffff8211171561100e5761100d610fb7565b5b80604052505050565b6000611021610cab565b905061102d8282610fe6565b919050565b600067ffffffffffffffff82111561104d5761104c610fb7565b5b61105682610d68565b9050602081019050919050565b82818337600083830152505050565b600061108561108084611032565b611017565b9050828152602081018484840111156110a1576110a0610fb2565b5b6110ac848285611063565b509392505050565b600082601f8301126110c9576110c8610fad565b5b81356110d9848260208601611072565b91505092915050565b600080600080600060a086880312156110fe576110fd610cb5565b5b600086013567ffffffffffffffff81111561111c5761111b610cba565b5b611128888289016110b4565b955050602086013567ffffffffffffffff81111561114957611148610cba565b5b611155888289016110b4565b945050604086013567ffffffffffffffff81111561117657611175610cba565b5b611182888289016110b4565b935050606086013567ffffffffffffffff8111156111a3576111a2610cba565b5b6111af888289016110b4565b92505060806111c088828901610ce0565b9150509295509295909350565b6111d681610ee2565b81146111e157600080fd5b50565b6000813590506111f3816111cd565b92915050565b600080600080600080600060e0888a03121561121857611217610cb5565b5b60006112268a828b01610ce0565b975050602088013567ffffffffffffffff81111561124757611246610cba565b5b6112538a828b016110b4565b965050604088013567ffffffffffffffff81111561127457611273610cba565b5b6112808a828b016110b4565b955050606088013567ffffffffffffffff8111156112a1576112a0610cba565b5b6112ad8a828b016110b4565b945050608088013567ffffffffffffffff8111156112ce576112cd610cba565b5b6112da8a828b016110b4565b93505060a06112eb8a828b01610ce0565b92505060c06112fc8a828b016111e4565b91505092959891949750929550565b7f4e487b7100000000000000000000000000000000000000000000000000000000600052603260045260246000fd5b7f4e487b7100000000000000000000000000000000000000000000000000000000600052601160045260246000fd5b600061137482610cbf565b91507fffffffffffffffffffffffffffffffffffffffffffffffffffffffffffffffff82036113a6576113a561133a565b5b600182019050919050565b7f6f6e6c794f776e6572733a204f6e6c79206f776e6572732063616e206163636560008201527f737320746f2074686973206d6574686f64000000000000000000000000000000602082015250565b600061140d603183610d2d565b9150611418826113b1565b604082019050919050565b6000602082019050818103600083015261143c81611400565b9050919050565b7f4e487b7100000000000000000000000000000000000000000000000000000000600052602260045260246000fd5b6000600282049050600182168061148a57607f821691505b60208210810361149d5761149c611443565b5b50919050565b7f546865207075626c69736865722063616e6e6f7420627579207468652069746560008201527f6d00000000000000000000000000000000000000000000000000000000000000602082015250565b60006114ff602183610d2d565b915061150a826114a3565b604082019050919050565b6000602082019050818103600083015261152e816114f2565b9050919050565b7f6275795350543a2054686973206974656d2063616e6e6f7420626520626f756760008201527f6874000000000000000000000000000000000000000000000000000000000000602082015250565b6000611591602283610d2d565b915061159c82611535565b604082019050919050565b600060208201905081810360008301526115c081611584565b9050919050565b7f6275795350543a20596f7520646f6e2774206d6174636820746865207072696360008201527f6500000000000000000000000000000000000000000000000000000000000000602082015250565b6000611623602183610d2d565b915061162e826115c7565b604082019050919050565b6000602082019050818103600083015261165281611616565b9050919050565b60008190508160005260206000209050919050565b6000815461167b81611472565b6116858186610d2d565b945060018216600081146116a057600181146116b6576116e9565b60ff1983168652811515602002860193506116e9565b6116bf85611659565b60005b838110156116e1578154818901526001820191506020810190506116c2565b808801955050505b50505092915050565b600081549050919050565b60008190508160005260206000209050919050565b60008160001c9050919050565b600073ffffffffffffffffffffffffffffffffffffffff82169050919050565b600061175261174d83611712565b61171f565b9050919050565b6000611765825461173f565b9050919050565b6000600182019050919050565b6000611784826116f2565b61178e8185610e2f565b9350611799836116fd565b8060005b838110156117d1576117ae82611759565b6117b88882610e5f565b97506117c38361176c565b92505060018101905061179d565b5085935050505092915050565b6000610120820190506117f4600083018c610dd4565b8181036020830152611806818b61166e565b9050611815604083018a610e15565b81810360608301526118278189611779565b9050818103608083015261183b818861166e565b905081810360a083015261184f818761166e565b905081810360c0830152611863818661166e565b905061187260e0830185610dd4565b611880610100830184610eee565b9a9950505050505050505050565b7f6372656174655350543a207072696365206d757374206265206772656174657260008201527f207468616e206f7220657175616c7320746f2030000000000000000000000000602082015250565b60006118ea603483610d2d565b91506118f58261188e565b604082019050919050565b60006020820190508181036000830152611919816118dd565b9050919050565b60006020601f8301049050919050565b600082821b905092915050565b60006008830261196d7fffffffffffffffffffffffffffffffffffffffffffffffffffffffffffffffff82611930565b6119778683611930565b95508019841693508086168417925050509392505050565b6000819050919050565b60006119b46119af6119aa84610cbf565b61198f565b610cbf565b9050919050565b6000819050919050565b6119ce83611999565b6119e26119da826119bb565b84845461193d565b825550505050565b600090565b6119f76119ea565b611a028184846119c5565b505050565b5b81811015611a2657611a1b6000826119ef565b600181019050611a08565b5050565b601f821115611a6b57611a3c81611659565b611a4584611920565b81016020851015611a54578190505b611a68611a6085611920565b830182611a07565b50505b505050565b600082821c905092915050565b6000611a8e60001984600802611a70565b1980831691505092915050565b6000611aa78383611a7d565b9150826002028217905092915050565b611ac082610d22565b67ffffffffffffffff811115611ad957611ad8610fb7565b5b611ae38254611472565b611aee828285611a2a565b600060209050601f831160018114611b215760008415611b0f578287015190505b611b198582611a9b565b865550611b81565b601f198416611b2f86611659565b60005b82811015611b5757848901518255600182019150602085019450602081019050611b32565b86831015611b745784890151611b70601f891682611a7d565b8355505b6001600288020188555050505b505050505050565b7f7570646174655350543a204f6e6c79205075626c69736865722063616e20757060008201527f6461746520746865206c69737465642053505400000000000000000000000000602082015250565b6000611be5603383610d2d565b9150611bf082611b89565b604082019050919050565b60006020820190508181036000830152611c1481611bd8565b9050919050565b600061012082019050611c31600083018c610dd4565b8181036020830152611c43818b610d79565b9050611c52604083018a610e15565b8181036060830152611c648189611779565b90508181036080830152611c788188610d79565b905081810360a0830152611c8c8187610d79565b905081810360c0830152611ca08186610d79565b9050611caf60e0830185610dd4565b611cbd610100830184610eee565b9a995050505050505050505056fea2646970667358221220e7b6b14772281fc2548a411d83efe6db1b03a18ca3fbd52bdab740d6329df42564736f6c63430008130033",
    "linkReferences": {},
    "deployedLinkReferences": {}
}